:020000040800F2
:1000000060120020C1010008F932000875300008B4
:10001000F53200086B070008953E0008000000005C
:10002000000000000000000000000000C1360008D1
:10003000CF0800080000000079340008C33600082B
:10004000DB010008DB010008DB010008DB01000820
:10005000DB010008DB010008DB010008DB01000810
:10006000DB010008DB010008DB010008DB01000800
:10007000DB010008B5070008DB010008DB01000810
:10008000DB010008DB010008DB010008DB010008E0
:10009000DB010008DB010008DB010008DB010008D0
:1000A000DB010008DB010008DB010008DB010008C0
:1000B000DB010008DB010008DB010008DB010008B0
:1000C000DB010008DB010008DB010008DB010008A0
:1000D000DB010008853E0008DB010008DB010008A9
:1000E000DB010008DB010008DB010008DB01000880
:1000F000DB010008DB010008DB010008DB01000870
:10010000DB010008DB010008DB010008DB0100085F
:100110009D370008DB010008DB010008DB01000857
:10012000DB010008DB010008DB010008DB0100083F
:10013000DB010008DB010008DB010008DB0100082F
:10014000DB010008DB010008DB010008DB0100081F
:10015000DB010008DB010008DB010008DB0100080F
:10016000DB010008DB010008DB010008DB010008FF
:10017000DB010008DB010008DB01000800000000D3
:10018000DB010008DB010008DB010008DB010008DF
:10019000DB010008DB010008DB010008DB010008CF
:1001A000DB010008DB010008DB010008DFF80CD0F0
:1001B00000F05AFA004800478D48000860120020FD
:1001C0000648804706480047FEE7FEE7FEE7FEE7F1
:1001D000FEE7FEE7FEE7FEE7FEE7FEE789370008F9
:1001E000AD0100082DE9F05F0546002092469B46D0
:1001F00088460646814640241BE02846414647463D
:10020000224600F069F853465A46C01A914110D36D
:1002100011461846224600F050F82D1A67EB0108E7
:100220004F4622460120002100F047F817EB000955
:100230004E41201EA4F10104DFDC484631462A4627
:100240004346BDE8F09F40EA01039B0703D009E065
:1002500008C9121F08C0042AFAD203E011F8013BB2
:1002600000F8013B521EF9D27047D2B201E000F80B
:10027000012B491EFBD270470022F6E710B513464A
:100280000A4604461946FFF7F0FF204610BD30B578
:100290000B46014600202022012409E021FA02F544
:1002A0009D4205D303FA02F5491B04FA02F52844DE
:1002B000151EA2F10102F1DC30BD202A04DB203A38
:1002C00000FA02F1002070479140C2F1200320FAA9
:1002D00003F3194390407047202A04DB203A21FAA7
:1002E00002F00021704721FA02F3D040C2F120024F
:1002F00091400843194670472DE9FE4F804681EA38
:100300000300C00F0C46009021F0004123F000458F
:10031000B8EB0200A94105D24046214690461C4652
:100320000B46024623F00040104347D0270DC7F389
:100330000A00C3F30A510290401A019040286BDA78
:10034000C3F3130040F4801B0098924620B10023B1
:10035000D2EB030A63EB0B0B01985946C0F1400244
:100360005046FFF7AAFF06460D4650465946019AE9
:1003700000F08CF910EB08006141002487EA11526B
:1003800084EAE7731A4340D0009A62B3019A012AC3
:100390004FEA075215DC001B61EB02014FF00042EF
:1003A00002EA0752CDE90042001C41F580113246B5
:1003B0002B4600F08CF903B0BDE8F08F4046214693
:1003C000F9E7001B61EB0201001C41F580130018E6
:1003D0005B412018A2F5001747EB030140EAD570F6
:1003E000B6196D4111E06D084FEA360645EAC07551
:1003F0004FEA0752001B61EB0201001C41F580111E
:1004000049084FEA30000019514132462B4603B0EB
:10041000BDE8F04F00F04CB90098012240000023E5
:10042000D0EB020263EBE073009821464FEAE074E0
:10043000B8EB000061EB0401E9E783F000435BE700
:1004400081F0004158E72DE9FE4F81EA030404F0F2
:10045000004421F0004100944FF0000B23F00043D2
:1004600050EA01045ED052EA03045BD0C3F30A549D
:10047000C1F30A552C44A4F2F3340194A0FB0254B6
:10048000C1F3130141F48011C3F3130343F4801348
:1004900001FB024400FB034E840A970A44EA81549C
:1004A00047EA8357A4FB076802958D0A05FB078579
:1004B0004FEA932C04FB0C542705029D4FEA065883
:1004C00047EA1637B5EB08056EEB070C870E920E60
:1004D00047EA811742EA8312A7FB0201B6EB0B0140
:1004E00064EB00042B0D43EA0C335E1844EB1C5004
:1004F000DA465146E7FB0201C5F313044FEA0B331A
:1005000043EA14534FEA0432019C43EA0603A4F180
:100510000C040294009CCDE900B400F0D8F803B0BC
:10052000BDE8F08F00200146F9E72DE9F04D81EAA2
:10053000030404F0004B21F0004514464FF0000A7C
:1005400023F0004150EA050220D054EA01021DD0F8
:10055000C5F30A570246C5F31303C1F31300C1F3F1
:100560000A5640F4801543F48013A7EB0608101BCD
:10057000D64608F2FD3873EB050002D308F10108F6
:1005800001E092185B41B8F1000F03DA0020014648
:10059000BDE8F08D00204FF48011064684460EE041
:1005A000171B73EB050705D3121B63EB050306430B
:1005B0004CEA010C49084FEA300092185B4150EABE
:1005C0000107EDD152EA030012D082EA040083EA67
:1005D0000501084305D0101BAB4106D201220023C0
:1005E00006E000224FF0004302E06FF001025310DA
:1005F0001AEB06004CEB085110EB0A0041EB0B0123
:10060000BDE8F04D00F054B8C1F30A52C1F3130134
:1006100040F2FF3341F480119A4202DA0020014691
:10062000704740F233439A42A2F2334202DC524214
:10063000FFF752BEFFF741BE30B5041E71F1000452
:1006400004DB4FF00044404264EB0101141E73F1DF
:10065000000405DB1C464FF00043524263EB0403E9
:10066000994208BF904230BD064C074D06E0E06855
:1006700040F0010394E8070098471034AC42F6D3E9
:10068000FFF798FDC44C0008E44C0008202A06DB64
:10069000CB17203A41FA02F043EAE07306E041FA50
:1006A00002F3D040C2F1200291400843194670473E
:1006B00010B5141E73F1000408DA401C41F100016A
:1006C00092185B411A4301D120F0010010BD2DE9C1
:1006D000F04D92469B4611B1B1FA81F202E0B0FAB8
:1006E00080F220329046FFF7E8FD04460F4640EACC
:1006F0000A0041EA0B0153465A46084313D01146FB
:1007000053EA010019D0C8F140025046FFF7E4FD5A
:1007100005460E46504659464246FFF7CEFD084371
:1007200005D0012004E020463946BDE8F08D0020C8
:10073000054346EAE0762C4337430A986305E40A0A
:10074000A0EB08000022FD0A44EA47540A3002D513
:1007500000200146E9E7010510196941DDE9084576
:1007600000196941BDE8F04DA2E700BFFEE770B592
:1007700002460B46002041F22105002116E0545CA0
:1007800080EA042000240EE000F400462EB141F27D
:10079000210686EA4006B0B203E04FF6FF7606EA8D
:1007A0004000661CF4B2082CEEDB491C9942E6D3EB
:1007B00070BD000010B5024800F028FC10BD00001C
:1007C000380100200146087810381823B0FBF3F2F6
:1007D0000848805CC865032A05D908686FF30900DA
:1007E000001D886503E008686FF309008865886D5F
:1007F00070470000A44C0008014600208A6A8B69FB
:10080000CBB932B1012A0DD0022A03D0032A10D16C
:100810000EE000BFCB6A03F08073B3F1807F00D19C
:10082000012007E0CB6AB3F1C07F00D1012001E0D5
:1008300000E000BF34E08B69B3F5005F1AD132B13C
:10084000012A07D0022A03D0032A11D10AE000BFEF
:1008500001200EE0CB6A03F08073B3F1807F00D1FA
:10086000012006E0CB6AB3F1C07F00D1012000E097
:1008700000BF15E032B1012A05D0022A04D0032AB4
:100880000CD103E000BF00BF012008E0CB6A03F0F9
:100890008073B3F1807F00D1012000E000BF00BF72
:1008A000704730B50468246824F4802405682C60FF
:1008B000046863608468402C04D10468A260046802
:1008C000E16003E00468A1600468E26030BD704745
:1008D00072B600BFFEE7000010B5002201B909E0C2
:1008E000012901D10A0205E0022901D10A0201E031
:1008F0004FF440720B2800D9001D0E4B1B6823F4E7
:1009000040730C4C236023461B681343236023462B
:100910001B6823F0F803236023461B68022444EA83
:10092000C0042343034C236023461B6843F48033F5
:10093000236010BD103C02401C48006800F40070A9
:10094000B0B11A48006820F400701849086000BF70
:100950000846006840F4006008600846006820F41B
:100960000060086000BF0846006840F4007008603E
:100970000E48006800F48060B0B10C48006820F4B4
:1009800080600A49086000BF0846006840F4805053
:1009900008600846006820F48050086000BF0846E0
:1009A000006840F48060086070470000003C02402E
:1009B000134A126822F44072114B1A60032906D1BF
:1009C0001A461268DB131A430D4B1A600EE0012918
:1009D00006D10B4A126842F00402094B1A6005E086
:1009E000074A126842F40042054B1A60044A126832
:1009F0004FF4803343EA00231A43014B1A607047D7
:100A0000103C0240074A126822F44072054B1A60FB
:100A10001A4612681A601A46126842F001021A60F9
:100A200001707047103C024010B50A49096821F472
:100A30004071084C21602146096841F440712160F1
:100A40002146096841F0010121600260BFF36F8F08
:100A5000436010BD103C0240084A126822F4407204
:100A6000064B1A601A46126842F480721A601A46DF
:100A7000126842F001021A6001807047103C024087
:100A8000084A126822F44072064B1A601A4612682D
:100A900042F400721A601A46126842F001021A60AB
:100AA00001607047103C02402A48006800F01000C6
:100AB00040B12948C06940F010002749C8611020A2
:100AC000244908602348006800F0200040B1224813
:100AD000C06940F008002049C86120201D49086015
:100AE0001C48006800F0400040B11B48C06940F05D
:100AF00004001949C861402016490860154800687B
:100B000000F0800040B11448C06940F00200124972
:100B1000C86180200F4908600E48006800F48070AA
:100B200048B10D48C06940F001000B49C8614FF45D
:100B30008070084908600748006800F0020040B172
:100B40000548C06940F020000349C86102200149FE
:100B5000086070470C3C02400000002070B504465D
:100B6000002500201449C86100F03CFE054609E05C
:100B7000601C38B124B100F035FE401BA04201D901
:100B8000032070BD0D48006800F480300028EFD1CC
:100B90000A48006800F0010010B101200749086010
:100BA0000648006800F4F97018B1FFF77DFF0120D6
:100BB000E7E70020E5E70000000000200C3C0240D1
:100BC00010B50446A1880122206800F005FE10BD82
:100BD00010B50446A1880022206800F0FDFD10BD7C
:100BE0002DE9F04104460E4617461D462660A780B3
:100BF0003622294604F10800FFF725FBE98EE1873C
:100C0000A96B2164A98FA4F84410E98F46200153F1
:100C1000112205F1400104F14800FFF714FB95F89B
:100C2000511084F85910696DE16504F16102511E9B
:100C3000204600F032F894F86000C82802D0012065
:100C4000BDE8F0810020FBE7F8B505460C461646E6
:100C50001F4603208DF80000200C8DF80100200AAB
:100C60008DF80200E0B28DF803002846FFF7B0FFD0
:100C70004FF0FF330422694605F1080001F0B3FC90
:100C800038B94FF0FF333A46314605F1080001F01C
:100C9000E9FB2846FFF794FFF8BD2DE9F04188B045
:100CA00004460D4616464FF0900806270020059092
:100CB000069007900290039004908DF814802046CF
:100CC000FFF786FFF81F3B4602AA05A9009004F132
:100CD000080001F067FD2046FFF772FF9DF80C0049
:100CE00028709DF80D00307008B0BDE8F08100005C
:100CF0003EB504460BA000680290052001902046F6
:100D0000FFF766FF4FF0FF30022302AA01A900900F
:100D100004F1080001F046FD2046FFF751FF9DF861
:100D200009003EBD00010000F0B585B005460C4647
:100D30000426202714216846FFF79EFA8DF80070DC
:100D4000200C8DF80100200A8DF80200E0B28DF829
:100D500003002846FFF73CFF731F3246694605F142
:100D6000080001F040FC2846FFF72AFF05B0F0BD5F
:100D700070B504460C48056801260AE00A48006878
:100D8000401B40F6B831884203D92046FFF718FFD0
:100D900070BD2046FFF7ACFF064600F001000028BA
:100DA000ECD100BFF4E700002000002038B5054674
:100DB0000C460CB1062000E0042000902846FFF706
:100DC00007FF4FF0FF330122694605F1080001F0EB
:100DD0000AFC2846FFF7F4FE38BD2DE9F041054630
:100DE0000C4616461F46C4F30B0050B90121284695
:100DF000FFF7DCFF21462846FFF796FF2846FFF75E
:100E0000B7FF3B4632462146284600F002F8BDE8CF
:100E1000F0812DE9F84380460C4617461D4633E025
:100E2000E0B2C0F58076B54200DA2E460121404698
:100E3000FFF7BCFF02208DF80000200C8DF80100A8
:100E4000200A8DF80200E0B28DF803004046FFF75B
:100E5000BFFE4FF0FF330422694608F1080001F09D
:100E6000C2FB4FF0FF333246394608F1080001F06B
:100E7000BAFB4046FFF7A4FE4046FFF779FF374430
:100E80003444A81B85B200BF002DC9DCBDE8F8833F
:100E900001460020204A914203D2B1F1006F00D3F5
:100EA00038E01E4A914204D21B4A914201D30120EC
:100EB00030E01B4A914204D2184A914201D30220E9
:100EC00028E0184A914204D2154A914201D30320E6
:100ED00020E0154A914204D2124A914201D30420E3
:100EE00018E0124A914204D20F4A914201D30520E0
:100EF00010E00F4A914204D20C4A914201D30620DD
:100F000008E00C4A914204D2094A914201D30720D9
:100F100000E0072070470000004000080080000843
:100F200000C00008000001080000020800000408DA
:100F3000000006080000080870B50446A56D00F022
:100F400051FC064694F83500022808D080206065E0
:100F500000BF002084F8340000BF012070BD20686D
:100F6000006820F01600216808602068406920F0C1
:100F7000800021684861206C08B9A06C28B1206805
:100F8000006820F00800216808602068006820F0F0
:100F900001002168086010E000F024FC801B052897
:100FA0000BD920206065032084F8350000BF0020A5
:100FB00084F8340000BF0320D0E72068006800F008
:100FC00001000028E8D194F85C103F208840A86018
:100FD000012084F8350000BF002084F8340000BFF1
:100FE00000BFBBE7014691F83500022803D08020FE
:100FF000486501207047052081F8350008680068C1
:1010000020F001000A6810600020F3E7F8B50446FC
:10101000002000908C4800684FF41651B0FBF1F7A7
:10102000A56D2E6894F85C1008208840304098B177
:101030002068006800F0040070B12068006820F0AB
:1010400004002168086094F85C1008208840A860BB
:10105000606D40F00100606594F85C1001208840EC
:10106000304068B12068406900F0800040B194F8D9
:101070005C1001208840A860606D40F0020060654F
:1010800094F85C1004208840304068B12068006803
:1010900000F0020040B194F85C1004208840A86081
:1010A000606D40F00400606594F85C10102088408A
:1010B000304078B32068006800F0080050B394F81E
:1010C0005C1010208840A8602068006800F4802030
:1010D00080B12068006800F4002028B9206CC8B1F5
:1010E0002046216C884715E0A06C98B12046A16C81
:1010F00088470FE02068006800F4807028B92068F5
:10110000006820F0080021680860206C10B12046BB
:10111000216C884794F85C102020884030400028DB
:1011200065D02068006800F0100000285FD094F8B7
:101130005C1020208840A86094F83500052828D14C
:101140002068006820F01600216808602068406967
:1011500020F0800021684861206C08B9A06C28B19B
:101160002068006820F008002168086094F85C108E
:101170003F208840A860012084F8350000BF00208F
:1011800084F8340000BF206D10B12046216D8847DF
:10119000F8BD2068006800F4802080B120680068F5
:1011A00000F4002028B9606C10B12046616C8847BB
:1011B0001DE0E06BD8B12046E16B884717E020685E
:1011C000006800F4807068B92068006820F01000A2
:1011D00021680860012084F8350000BF002084F8F1
:1011E000340000BFE06B10B12046E16B8847606DB2
:1011F00038B3606D00F00100F0B1052084F83500CF
:101200002068006820F001002168086000BF009895
:10121000401C0090B84200D905E02068006800F04A
:1012200001000028F3D100BF012084F8350000BF81
:10123000002084F8340000BFE06C10B12046E16C5F
:10124000884700BFA4E700002C0000202DE9F041F2
:101250000446002500F0C6FA074614B90120BDE88F
:10126000F081606A00B100BF022084F8350000BF41
:10127000002084F8340000BF2068006820F00100DE
:10128000216808600AE000F0ADFAC01B052805D906
:1012900020206065032084F83500E0E720680068BE
:1012A00000F001000028EED12068056821480540C3
:1012B000D4E901010843E1680843216908436169F1
:1012C0000843A1690843E1690843216A08430543CB
:1012D000606A042803D1D4E90B0108430543206860
:1012E00005602068456925F00705606A0543606A66
:1012F00004280DD1A06A0543E06A48B12046FFF7F3
:101300007BFA28B140206065012084F83500A6E70B
:10131000206845612046FFF755FA064694F85C10B0
:101320003F208840B06000206065012084F83500CF
:10133000002094E73F8010F02DE9F04704460D4669
:1013400016461F464FF00008D4F8589000BF94F896
:101350003400012802D10220BDE8F087012084F882
:10136000340000BF94F83500012825D1022084F80C
:101370003500002060653B46324629462046FFF78F
:1013800090FA94F85C103F208840C9F80800206863
:10139000006840F0160021680860206C28B12068C1
:1013A000006840F00800216808602068006840F08C
:1013B00001002168086006E000BF002084F83400C6
:1013C00000BF4FF002084046C6E7000010B50F48C6
:1013D0000F490860002008600E48091D08600020C1
:1013E00008600D480A491039086000200860C120D3
:1013F000091D0860002008600120091D0860002008
:10140000086000F045FA002010BD0000FFC9FEF69C
:101410002038024033797704FF17E02270B5044684
:1014200000F0E0F906462546681C10B10448007833
:10143000054400BF00F0D6F9801BA842FAD370BD66
:10144000280000202DE9F04104460F46002600BF89
:101450002548007E012802D10220BDE8F08101204C
:101460002149087600BF4CF25030FFF777FB054664
:10147000002D32D1401E38602068012810D1207C18
:101480006168FFF795FA4CF25030FFF767FB0546AD
:101490001648006848F204018843144908601AE0BD
:1014A000A66812E0217C3046FFF716FA4CF2503065
:1014B000FFF754FB05460D48006820F0FA000B4981
:1014C00008600DB13E6005E0761CD4E902100844C6
:1014D000B042E7D800BFFFF72FFA00BF0020024953
:1014E000087600BF2846B8E700000020103C024004
:1014F0000348006840F00040014908600020704740
:10150000103C02402DE9F0410646884614461D462F
:1015100000BF1E48007E012802D10220BDE8F081F4
:1015200001201A49087600BF4CF25030FFF716FB35
:1015300007461FBB26B9E1B24046FFF763FA12E047
:10154000012E04D1A1B24046FFF786FA0BE0022E2D
:1015500004D121464046FFF793FA04E022462B4689
:101560004046FFF761FA4CF25030FFF7F7FA0746B2
:101570000748006820F001000549086000BF00200E
:101580000249087600BF3846C8E700000000002086
:10159000103C024000200949096801F0004159B19E
:1015A0000749064A0C3A1160064911600349096867
:1015B00001F0004101B1012070470000103C0240E1
:1015C00023016745AB89EFCDF8B502460B460025F0
:1015D000002400200021E0E0012606FA01F51E6843
:1015E00006EA0504AC4274D11E7906F00306012E0A
:1015F00004D01E7906F00306022E13D190684F0026
:101600000326BE40B0434F00DE68BE4030439060CA
:10161000506801268E40B0431E79C6F300168E40F6
:10162000304350601E7906F00306032E09D0D068BF
:101630004F000326BE40B0434F009E68BE4030437B
:10164000D0601E7906F00306022E13D1CF0802F1F6
:10165000200656F827004E07F70E0F26BE40B0436F
:101660004F07FF0E1E69BE403043CF0802F120062F
:1016700046F8270010684F000326BE40B0431E798D
:1016800006F003064F00BE40304310605E6806F46B
:101690004036002E1DD000BF00260096414E366811
:1016A00046F480463F4F3E603E46366806F480462C
:1016B000009600BF00BF3C4E8F0856F827008E07EB
:1016C000370F0F26BE40B043384EB24202D100263B
:1016D0002EE061E0364EB24201D1012628E0354EBF
:1016E000B24201D1022623E0334EB24201D1032699
:1016F0001EE0324EB24201D1042619E0304EB24211
:1017000001D1052614E02F4EB24201D106260FE08A
:101710002D4EB24201D107260AE02C4EB24201D131
:10172000082605E02A4EB24201D1092600E00A2629
:101730008F073F0FBE4030431B4E8F0846F82700EF
:10174000244E3068A0435E6806F4801606B120433C
:10175000204E3060361D3068A0435E6806F40016E7
:1017600006B120431B4E361D30601A4E361F3068BE
:10177000A0435E6806F4003606B12043154E361FBE
:101780003060361F3068A0435E6806F4803606B1CC
:101790002043104E083E3060491C1029FFF41CAF56
:1017A000F8BD000044380240083801400000024003
:1017B0000004024000080240000C024000100240F9
:1017C0000014024000180240001C024000200240A9
:1017D00000240240083C01400AB1816101E00B0491
:1017E00083617047014800687047000020000020B6
:1017F00003480068034909780844014908607047B4
:10180000200000202800002010B50D48006840F49A
:1018100000700B4908600846006840F4806008606A
:101820000846006840F480700860032000F0A8F8C3
:101830000F2000F007F800F02DF8002010BD000088
:10184000003C024070B504460E4800784FF47A71AF
:10185000B1FBF0F00C490968B1FBF0F5284601F046
:10186000C5F808B1012070BD102C07D20022214616
:10187000501E00F047F80548046001E00120F2E73F
:101880000020F0E7280000202C0000202400002089
:101890007047000008B500BF002000900E480068A7
:1018A00040F480400C4908600846006800F480401D
:1018B000009000BF00BF00BF00200090081F00681C
:1018C00040F08050091F08600846006800F0805012
:1018D000009000BF00BF08BD4438024001460846E2
:1018E00000280DDB00BF00BF00F01F0301229A405B
:1018F00043099B0003F1E023C3F8002100BF00BFB0
:1019000000BF70472DE9F05F80460D461646002760
:1019100002F0D8FA074639462A46334601F0070056
:10192000C0F1070ABAF1040F02D94FF0040A01E02E
:10193000C0F1070AD14600F1040ABAF1070F02D23A
:101940004FF0000A01E0A0F1030AD4464FF0010A6B
:101950000AFA09FAAAF1010A0AEA020A0AFA0CFAD0
:101960004FF0010B0BFA0CFBABF1010B0BEA030B75
:101970004AEA0B042146404602F0ACFABDE8F09F6B
:1019800000BF00F00702064B19684FF6FF0319402D
:10199000044B0B4343EA0221014B196000BF70471F
:1019A0000CED00E00000FA0538B5002400BF00206F
:1019B00000901D48006840F080501B4908600846B0
:1019C000006800F08050009000BF00BF0120174960
:1019D0000864FFF707FF044607E0FFF703FF001B5B
:1019E000B0F57A7F01D9032038BD1148406800F472
:1019F0008030B0F5803FF0D101200C494864FFF7FA
:101A0000F1FE044607E0FFF7EDFE001BB0F57A7F1C
:101A100001D90320E8E70648406800F40030B0F53B
:101A2000003FF0D10020DFE74038024000000E42C6
:101A30000070004070B504460D460CB9012070BD21
:101A40005848006800F00F00A84209D255490D70AF
:101A50000846006800F00F00A84201D00120EEE720
:101A6000207800F0020002281DD1207800F0040048
:101A7000042805D14C48006840F4E0504A49086009
:101A8000207800F00800082805D14748006840F495
:101A90006040454908604448006820F0F000A168B3
:101AA000084341490860207800F00100A8B360684D
:101AB000012807D13C4808380068C0F34040B8B955
:101AC0000120BCE76068022802D06068032807D1C3
:101AD000354808380068C0F3406048B90120AEE7D7
:101AE000314808380068C0F3400008B90120A6E773
:101AF0002D48006820F00300616808432A49086007
:101B0000FFF770FE064609E0FFF76CFE801B41F20E
:101B10008831884202D9032091E707E02248006813
:101B200000F00C006168B0EB810FEDD11D4800683A
:101B300000F00F00A84209D91A490D700846006844
:101B400000F00F00A84201D0012078E7207800F0D3
:101B50000400042807D11448006820F4E050E1682C
:101B6000084311490860207800F00800082808D1CF
:101B70000D48006820F46040216940EAC1000A492C
:101B8000086000F021F908490968C1F30311074A08
:101B9000515CC8400649086006480068FFF752FEDD
:101BA00000204CE7003C024008380240AC4C0008E2
:101BB0002C0000202400002010B5FFF713FE04467F
:101BC0006848006840F001006649086006E0FFF7D9
:101BD00009FE001B022801D9032010BD61480068DE
:101BE00000F002000028F2D05E48006840F080005B
:101BF0005C490860FFF7F6FD0446002059490831AA
:101C0000086008E0FFF7EEFD001B41F288318842D2
:101C100001D90320E1E753480830006800F00C00C8
:101C20000028EFD1FFF7DEFD04464E48006820F49F
:101C300050204C49086006E0FFF7D4FD001B6428E3
:101C400001D90320C9E74748006800F400300028A4
:101C5000F2D1FFF7C7FD04464248006820F08070CB
:101C60004049086006E0FFF7BDFD001B022801D9CE
:101C70000320B2E73B48006800F000700028F2D172
:101C8000FFF7B0FD04463748006820F08060354912
:101C9000086006E0FFF7A6FD001B022801D903201B
:101CA0009BE73048006800F000600028F2D1FFF7A1
:101CB00099FD04462B48006820F0805029490860AF
:101CC00006E0FFF78FFD001B022801D9032084E7FF
:101CD0002448006800F000500028F2D12248214931
:101CE000091D086021481F4984310860091D0860EA
:101CF0001C480C30006820F4F8501A490C31086078
:101D00000846006820F4005008600846006820F487
:101D1000804008600846006840F41F0008600846DC
:101D2000006840F4001008600846006840F4800035
:101D300008600C487430006820F0010009497431D3
:101D400008600846006840F080700860084809494B
:101D5000086009480068FFF775FD08B101203CE7FD
:101D600000203AE700380240103000040030002420
:101D70000024F4002C00002024000020014800680A
:101D8000704700002C00002000B5FFF7F7FF044962
:101D90000968C1F38221034A515CC84000BD0000BC
:101DA00008380240BC4C000800B5FFF7E7FF0449C3
:101DB0000968C1F34231034A515CC84000BD0000CC
:101DC00008380240BC4C00082DE9F04700240025EB
:101DD0000026A1462548006800F00C0020B1042828
:101DE00005D008283AD105E0DFF8849039E0DFF823
:101DF000849036E01D48001F006800F03F041B4837
:101E0000001F006800F4800078B11A481749091FC4
:101E10000968C1F38811A0FB017001462246002326
:101E20003846FEF7DFF905460EE011480F49091F55
:101E30000968C1F38811A0FB017001462246002306
:101E40003846FEF7CFF905460848001F0068C0F382
:101E50000140401C4600B5FBF6F902E0DFF81090A7
:101E600000BF00BF4846BDE8F087000008380240C8
:101E70000024F40040787D01F8B504460CB9012037
:101E8000F8BD207800F00100002874D0F9480068FF
:101E900000F00C0004280DD0F648006800F00C009B
:101EA000082813D1F348001F006800F48000B0F543
:101EB000800F0BD1EF4808380068C0F3404000287D
:101EC00059D06068002856D10120D9E700BF60686A
:101ED000B0F5803F08D1E7480838006840F480300A
:101EE000E449083908601EE06068B0F5A02F0DD104
:101EF000E0480838006840F48020DE49083908606E
:101F00000846006840F4803008600CE0D948083882
:101F1000006820F48030D749083908600846006816
:101F200020F48020086000BF606890B1FFF75AFC81
:101F3000054606E0FFF756FC401B642801D9032044
:101F40009EE7CC4808380068C0F340400028F1D034
:101F500011E0FFF747FC054606E0FFF743FC401B96
:101F6000642801D903208BE7C24808380068C0F311
:101F700040400028F1D1207800F0020002285FD113
:101F8000BC48006800F00C0058B1BA48006800F086
:101F90000C0008281CD1B748001F006800F480001E
:101FA000B0B9B44808380068C0F3400020B1E06818
:101FB000012801D0012063E7AE480838006820F00E
:101FC000F800216940EAC100AA490839086037E0F1
:101FD000E06800B30120A8490860FFF703FC05464C
:101FE00006E0FFF7FFFB401B022801D9032047E76B
:101FF000A04808380068C0F340000028F1D09D4890
:102000000838006820F0F800216940EAC1009949C9
:102010000839086014E0002097490860FFF7E2FBE8
:10202000054606E0FFF7DEFB401B022801D903202E
:1020300026E7904808380068C0F340000028F1D136
:10204000207800F0080008282CD16069A8B1012090
:102050008A490860FFF7C6FB054606E0FFF7C2FBAA
:10206000401B022801D903200AE782486C3000682F
:10207000C0F340000028F1D014E000207F49086040
:10208000FFF7B0FB054606E0FFF7ACFB401B02285C
:1020900001D90320F4E677486C300068C0F34000B3
:1020A0000028F1D1207800F00400042870D1002726
:1020B00070483830006800F0805090B900BF0020B0
:1020C00000906C483830006840F0805069493831E1
:1020D00008600846006800F08050009000BF00BF14
:1020E00001276748006800F48070B0B96448006850
:1020F00040F4807062490860FFF774FB054606E013
:10210000FFF770FB401B022801D90320B8E65C48AA
:10211000006800F480700028F2D000BFA068012899
:1021200008D154486830006840F0010051496831D6
:1021300008601DE0A06805280DD14E486830006891
:1021400040F004004B49683108600846006840F0E0
:10215000010008600CE047486830006820F001008A
:102160004449683108600846006820F004000860AF
:1021700000BFA068A8B1FFF735FB054609E0FFF7EF
:1021800031FB401B41F28831884202D9032077E6B7
:1021900026E0384868300068C0F340000028EED0E0
:1021A00013E0FFF71FFB054608E0FFF71BFB401B92
:1021B00041F28831884201D9032061E62D48683018
:1021C0000068C0F340000028EFD1012F07D1294853
:1021D0003830006820F0805026493831086000BF50
:1021E000A069002845D02348006800F00C000828AA
:1021F0005DD0A069022845D100201F490866FFF77D
:10220000F1FA054606E0FFF7EDFA401B022801D976
:10221000032035E6174808380068C0F340600028FE
:10222000F1D1D4E907010843616A40EA8111012232
:10223000A06AC2EB500041EA00412C20005D41EA57
:1022400000600C49091F086001200B490866FFF770
:10225000C9FA054606E0FFF7C5FA401B022801D976
:1022600003200DE6034808380068C0F340600028EA
:10227000F1D049E00838024000004742800E474252
:1022800000700040002021490866FFF7ABFA0546C0
:1022900006E0FFF7A7FA401B022801D90320EFE56B
:1022A0001B480068C0F340600028F2D12CE0A06910
:1022B000012800D1E4E51648001D0668A069012840
:1022C00020D006F48001E06981421BD106F03F0175
:1022D000206A814216D147F6C0703040616AB0EB87
:1022E000811F0FD106F440310122A06AC2EB5000D9
:1022F000B1EB004F06D106F070612C20005DB1EB10
:10230000006F01D00120BBE50020B9E50000474285
:102310000038024010B504460CB9012010BD606AB7
:1023200038B96068B0F5827F00D105E00021E16135
:1023300002E00021216161610021A16294F8510055
:1023400028B9002084F85000204600F047F8022009
:1023500084F851002068006820F04000216808607F
:10236000A08800F48270218901F404410843A18906
:1023700001F400610843217C01F002010843217D42
:1023800001F001010843218B01F400710843217F12
:1023900001F0380108432021095D01F08001084364
:1023A000218D01F400510843216808600421A069CF
:1023B00001EA104094F8241001F01001084321684C
:1023C00048602068C06920F400602168C86100206E
:1023D0006065012084F8510000209FE710B586B0A9
:1023E0000446142101A8FDF747FF1B4920688842D5
:1023F00030D100BF002000901848006840F48040B1
:10240000164908600846006800F48040009000BF4C
:1024100000BF00BF0020009010481038006840F056
:1024200002000E49103908600846006800F00200FA
:10243000009000BF00BF4FF4604001900220029066
:1024400000200390032004900520059001A9044872
:10245000FFF7BAF806B010BD00380040403802401F
:10246000000402402DE9F8430446884616461D46FE
:1024700094F85100012802D00220BDE8F883B8F199
:10248000000F00D00EB90120F7E76068B0F5827F39
:102490000CD1A06850B9042084F85100334642465C
:1024A00041462046009500F07DF9E6E7FFF79AF9EE
:1024B000074600BF94F85000012801D10220DCE754
:1024C000012084F8500000BF042084F8510000204F
:1024D0006065C4F83880A687E6872063A086E0861A
:1024E00020646064A068B0F5004F0BD120680068DC
:1024F00020F04000216808602068006820F48040D7
:10250000216808602068006800F04000402805D07D
:102510002068006840F0400021680860E06830BB37
:1025200021E02068806800F0010050B12068007B45
:10253000A16B0870A06B401CA063E08F401EE08779
:1025400011E0FFF74FF9C01BA84201D3681C00B986
:102550004DB9012084F8510000BF002084F85000DC
:1025600000BF032089E7E08F0028DAD125E021E0D1
:102570002068806800F0010050B12068C068A16B3D
:102580000880A06B801CA063E08F401EE08711E0F4
:10259000FFF728F9C01BA84201D3681C00B94DB948
:1025A000012084F8510000BF002084F8500000BFD3
:1025B000032062E7E08F0028DAD13A462946204618
:1025C00000F084FF08B120206065012084F85100EC
:1025D00000BF002084F8500000BF606D08B10120EA
:1025E0004BE7002049E72DE9F84304460F4616461D
:1025F0001D46FFF7F7F88046B14694F851000128D0
:1026000002D00220BDE8F88307B10EB90120F9E736
:1026100000BF94F85000012801D10220F2E7012008
:1026200084F8500000BF032084F85100002060654A
:102630002763A686E686A063A087E087606420649F
:10264000A068B0F5004F0BD12068006820F0400072
:10265000216808602068006840F4804021680860B4
:102660002068006800F04000402805D0206800681D
:1026700040F0400021680860E068B0F5006F37D195
:10268000606810B1B9F1010F09D1206B0088216891
:10269000C860206B801C2063E08E401EE08623E033
:1026A0002068806800F0020002280AD1206B0088B0
:1026B0002168C860206B801C2063E08E401EE0868D
:1026C00012E0FFF78FF8A0EB0800A84201D3681CC6
:1026D00000B94DB9012084F8510000BF002084F8F2
:1026E000500000BF03208DE7E08E0028D8D136E0EF
:1026F000606810B1B9F1010F09D1206B0078216831
:102700000873206B401C2063E08E401EE08623E0AF
:102710002068806800F0020002280AD1206B00784F
:1027200021680873206B401C2063E08E401EE08609
:1027300012E0FFF757F8A0EB0800A84201D3681C8D
:1027400000B94DB9012084F8510000BF002084F881
:10275000500000BF032055E7E08E0028D8D1424644
:102760002946204600F0FCFE08B120206065A068E4
:1027700050B900BF002000902068C0680090206819
:102780008068009000BF00BF012084F8510000BFA6
:10279000002084F8500000BF606D08B1012031E7CF
:1027A00000202FE72DE9FE4F04460F4690461D46B8
:1027B0000C9E01200190FFF715F8814694F851B066
:1027C00060680290AA46BBF1010F0BD00298B0F5E9
:1027D000827F04D1A06810B9BBF1040F02D002209F
:1027E000BDE8FE8F1FB1B8F1000F00D00DB9012078
:1027F000F6E700BF94F85000012801D10220EFE76E
:10280000012084F8500000BF94F85100042802D041
:10281000052084F8510000206065C4F83880E58701
:10282000A5872763E586A586206460642068006824
:1028300000F04000402805D02068006840F04000CB
:1028400021680860E068B0F5006F52D1606810B18F
:10285000BAF1010F09D1206B00882168C860206B94
:10286000801C2063E08E401EE0863BE0206880688C
:1028700000F00200022810D1E08E70B1019801280A
:102880000BD1206B00882168C860206B801C2063FE
:10289000E08E401EE086002001902068806800F0F5
:1028A000010068B1E08F58B12068C068A16B088052
:1028B000A06B801CA063E08F401EE0870120019088
:1028C000FEF790FFA0EB0900B0420BD3701C48B19B
:1028D000012084F8510000BF002084F8500000BFA0
:1028E00003207DE7E08E0028C0D1E08F0028BDD115
:1028F00052E0606810B1BAF1010F09D1206B007885
:1029000021680873206B401C2063E08E401EE08627
:102910003CE02068806800F00200022810D1E08EC0
:1029200070B1019801280BD1206B007821680873E1
:10293000206B401C2063E08E401EE086002001904A
:102940002068806800F0010068B1E08F58B120680D
:10295000C068A16B0870A06B401CA063E08F401E94
:10296000E08701200190FEF73DFFA0EB0900B04297
:1029700001D3701C00B94EB9012084F8510000BF8A
:10298000002084F8500000BF032029E7E08E0028D3
:10299000BFD1E08F0028BCD14A463146204600F026
:1029A000DFFD40B12020606500BF002084F85000AA
:1029B00000BF012014E7A06850B900BF00200090BC
:1029C0002068C068009020688068009000BF00BF49
:1029D000012084F8510000BF002084F8500000BF9F
:1029E000606D08B10120FBE60020F9E670B50446F1
:1029F0002546681EB0F1807F01D301200FE0681EDC
:102A00004FF0E02148610F214FF0FF3001F062FAF2
:102A100000204FF0E021886107200861002070BD90
:102A2000F8B504460D46164694F8420020282DD1EC
:102A300005B10EB90120F8BD0120206300206063BC
:102A400032462946204601F03BF90746206B012813
:102A500019D100BF00200090206800680090206815
:102A60004068009000BF00BF00BF00BF21680C316C
:102A700051E8001F41F0100021680C3141E80002CC
:102A8000002AF3D100E001273846D4E70220D2E73C
:102A90000A4B02689A4210D1094A1278012A0CD1D5
:102AA000084A1180084A1278052A03D0064A12788B
:102AB000062A02D00322044B1A707047004C0040D3
:102AC000980100203C0000204000002070470000DA
:102AD0002DE9F84F0446206805682068C66820681C
:102AE00047694FF00009CA4605F00F09B9F1000F18
:102AF0000AD105F0200038B106F0200020B12046B0
:102B000000F04AFFBDE8F88FB9F1000F7CD007F064
:102B1000010018B906F49070002875D005F0010086
:102B200030B106F4807018B1606C40F00100606450
:102B300005F0040030B107F0010018B1606C40F0FE
:102B40000200606405F0020030B107F0010018B126
:102B5000606C40F00400606405F0080048B106F0C5
:102B6000200010B907F0010018B1606C40F00800B7
:102B70006064606C002846D005F0200028B106F0A3
:102B8000200010B1204600F007FF20684069C0F324
:102B9000801A606C00F0080010B9BAF1000F2DD057
:102BA000204600F0A0FE2068406900F04000402868
:102BB00020D100BF00BF2168143151E8001F21F06F
:102BC00040002168143141E80002002AF3D100BF1F
:102BD000E06B50B17F48E16B0865E06BFEF702FAED
:102BE00088B1E06B016D88470DE02046FFF76EFF6E
:102BF00009E009E02046FFF769FF04E02046FFF7FF
:102C000065FF002060647DE7206B012878D105F026
:102C10001000002874D006F010000028FAD000BF81
:102C200000200090206800680090206840680090B4
:102C300000BF00BF2068406900F04000402870D10C
:102C4000E06B006840681FFA80F8B8F1000F58D0B8
:102C5000A08D404555DDA4F82E80E06BC069B0F52D
:102C6000807F43D000BF00BF21680C3151E8001FB6
:102C700021F4807021680C3141E80002002AF3D170
:102C800000BF00BF00BF2168143151E8001F21F0D0
:102C900001002168143141E80002002AF3D100BF8D
:102CA00000BF00BF2168143151E8001F21F040002F
:102CB0002168143141E80002002AF3D100BF20202E
:102CC00084F842000020206300BF00BF21680C315F
:102CD00051E8001F21F0100021680C3141E800028A
:102CE000002AF3D100BFE06BFEF726F902206063F3
:102CF000A08DE28D801A81B22046FFF7C9FE0EE05A
:102D000052E0A08D40450AD1E06BC069B0F5807FEC
:102D100005D102206063A18D2046FFF7B9FEF1E6E0
:102D2000FFE7A08DE18D401A1FFA80F8E08DD0B347
:102D3000B8F1000F37D000BF00BF21680C3151E857
:102D4000001F21F4907021680C3141E80002002A34
:102D5000F3D100BF00BF00BF2168143151E8001F4C
:102D600021F001002168143141E80002002AF3D16A
:102D700000BF202084F842000020206300BF00BF75
:102D800021680C3151E8001F21F0100021680C313E
:102D900041E80002002AF3D100BF022060634146EF
:102DA0002046FFF775FEADE605F0800030B106F075
:102DB000800018B1204600F0EFFFA3E605F04000C8
:102DC00030B106F0400018B1204600F0C2FD99E68F
:102DD00000BF97E6AD37000810B504460CB90120D6
:102DE00010BDA06900B100E000BF94F8410028B90F
:102DF000002084F84000204600F02AF8242084F8BF
:102E000041002068C06820F400502168C860204656
:102E100000F040FE2068006920F4904021680861BD
:102E20002068406920F02A00216848612068C06855
:102E300040F400502168C86000206064202084F8BD
:102E4000410084F842000020606300BFC8E7000032
:102E500010B586B00446142101A8FDF70DFA4E49BD
:102E60002068884257D100BF002000904B4800687E
:102E700040F40020494908600846006800F400203A
:102E8000009000BF00BF00BF0020009043481038F2
:102E9000006840F0010041491039086008460068A8
:102EA00000F00100009000BF00BF0320019002204D
:102EB000029000200390032004900820059001A9AF
:102EC0003748FEF781FB37483749086040054860BE
:102ED000002135488160C1604FF4806101610021AB
:102EE00041618161C1614FF40031016200214162A1
:102EF000FEF7ACF908B1FDF7EBFC00BF2A48E06330
:102F0000846300BF002211463420FEF7FBFC34200E
:102F1000FEF7E4FC3EE02549206888423AD100BF34
:102F2000002000901D48001D006840F010001B4963
:102F3000091D08600846006800F01000009000BFFE
:102F400000BF00BF0020009014481038006840F017
:102F500001001249103908600846006800F00100BD
:102F6000009000BF00BF4FF4C060019002200290AB
:102F700000200390032004900720059001A9084831
:102F8000FEF722FB002211462520FEF7BBFC252080
:102F9000FEF7A4FC06B010BD004C004040380240D3
:102FA0000000024040600240380100200010014053
:102FB000704770472DE9F84F04460E46174699466C
:102FC0004FF0000A94F84100202850D106B117B9FB
:102FD0000120BDE8F88F00206064212084F84100C2
:102FE000FEF700FC8246A784E784A068B0F5805F06
:102FF00004D1206910B90025B04602E035464FF0F3
:1030000000081EE05346002280212046CDF80090A3
:1030100000F0F2FE20B1202084F841000320D8E720
:1030200045B9B8F80000C0F308002168486008F10D
:10303000020803E02878216848606D1CE08C401E7F
:10304000E084E08C0028DDD1534600224021204658
:10305000CDF8009000F0D0FE20B1202084F841008F
:103060000320B6E7202084F841000020B1E70220C9
:10307000AFE7704700BFFEE770B517480368024628
:1030800016A1214801F022FC2048026820A11E4818
:1030900001F01CFC4FF4FA60FEF7C0F90E4800681E
:1030A0006FF31300B0F1005F11D11FA1164801F0BA
:1030B0000DFC0948446825460146086880F30888E5
:1030C00000BFFEF779FDFEF781F9A84703E01EA1D6
:1030D0000D4801F0FBFB70BD00C000085B494E4687
:1030E0004F5D20436865636B20416464723A203011
:1030F00078253038582C20446174613A2030782586
:103100003038580D0A000000F00000203400002084
:1031100046696C652053697A653A202564204279B6
:103120007465730D0A0000005B494E464F5D204AEE
:10313000756D7020746F204170706C696361746983
:103140006F6E2E2E2E0D0A005B4552524F525D209F
:103150004E6F2041505020666F756E64206F722054
:10316000537461636B204572726F72210D0A000007
:1031700008B500BF002000900A48006840F4001025
:10318000084908600846006800F40010009000BF7D
:1031900000BF002211460D20FEF7B4FB0D20FEF704
:1031A0009DFB08BD3038024000B587B0142102A84D
:1031B000FDF762F800BF002001901F48006840F052
:1031C00080001D4908600846006800F080000190FA
:1031D00000BF00BF00BF002001900846006840F01B
:1031E000010008600846006800F00100019000BF7F
:1031F00000BF00BF002001900846006840F00200B8
:1032000008600846006800F00200019000BF00BF9F
:10321000002289140948FEF7DFFA4FF4805002902B
:1032200001200390002004900220059002A9034889
:10323000FEF7CAF907B000BD303802400004024072
:1032400010B50E480E4908604FF4827048600021A6
:103250000B488160C160016141614FF4007181617F
:103260000021C1610162416281620A21C162FFF7EE
:1032700051F808B1FDF72CFB10BD000000380040EC
:103280005000002010B50B480B4908604FF4E130A6
:103290004860002108488160C16001610C214161E2
:1032A00000218161C161FFF797FD08B1FDF710FBB7
:1032B00010BD0000004C0040A800002010B50B48D5
:1032C0000B4908604FF4E1304860002108488160F4
:1032D000C16001610C21416100218161C161FFF781
:1032E0007BFD08B1FDF7F4FA10BD000000100140AD
:1032F000F000002000BFFEE700BFFEE72DE9F0432D
:1033000087B006460F46FEF745F93046FDF7C0FD8B
:103310000446F119481EFDF7BBFD8046A8EB0400EA
:10332000451C002006900190012002900394049512
:10333000022005904FF47A70FEF770F8F3201449DC
:1033400008604346224613A11D48009501F0BEFACD
:1033500072B606A901A8FEF775F8814662B6B9F102
:10336000000F05D017A11648069A01F0AFFA0AE03F
:103370004346224607A11248009501F0A7FA1AA178
:103380000F4801F0A3FAFEF7B3F807B0BDE8F083E9
:103390000C3C0240537461727420536563746F7205
:1033A0003A2025642C20456E6420536563746F7247
:1033B0003A2025642C204E756D3A2025640D0A00B4
:1033C000F00000204572617365204572726F7220B3
:1033D000617420536563746F7220436F64653A2093
:1033E00025640D0A00000000457261736520446F7A
:1033F0006E65210D0A0000002DE9F04107460E46DA
:10340000144604F0030010B104F00300241A3D46F2
:1034100007EB0408FEF7BEF8F3200D49086010E042
:10342000D6F800C06246002329460220FEF76AF85B
:1034300010B92D1D361D04E006A10E4801F046FA14
:1034400001E04545ECD300BFFEF752F8BDE8F0813E
:103450000C3C02405B4552524F525D20466C6173FA
:10346000682050726F6772616D204572726F720DC5
:103470000A000000F00000207047000008B5062098
:103480000090C31F012269460148FFF793FD08BD64
:10349000A800002008B5152000904FF0FF3301224E
:1034A00069460248FFF786FD08BD0000A80000201D
:1034B00008B5432000904FF0FF33012269460248CF
:1034C000FFF778FD08BD0000A8000020F8B504460D
:1034D0000E4615466068B0F5827F0DD1A068B0F544
:1034E000004F03D0A068B0F5806F05D12068006858
:1034F00020F04000216808606068B0F5827F1FD12D
:10350000A068B0F5806F0DD03346002280212046A0
:10351000009500F069F808B3606D40F02000606528
:103520000320F8BD3346002201212046009500F01B
:103530005BF898B1606D40F0200060650320F0E713
:103540003346002201212046009500F04DF828B1B5
:10355000606D40F0200060650320E2E70020E0E7B6
:103560007CB504460E46154633460122022120460C
:10357000009500F039F828B1606D40F020006065DA
:1035800003207CBD164800681821B0FBF1F01549F6
:10359000B0FBF1F04FF47A71484301906068B0F5E8
:1035A000827F0DD13346002280212046009500F015
:1035B0001BF898B1606D40F0200060650320E0E7E3
:1035C00000BF019800B908E00198401E01902068F2
:1035D0008068C0F3C0100028F3D100BF0020D0E7FE
:1035E0002C00002040420F002DE9F84F04460D4604
:1035F00090461E46DDF82890FEF7F4F8A0EB09008F
:10360000371AFEF7EFF882462C480068C0F3CB303B
:103610007843009046E0701C002843D0FEF7E2F8A3
:10362000A0EB0A00B84200D2A7BB2068406820F097
:10363000E000216848606068B0F5827F0DD1A06825
:10364000B0F5004F03D0A068B0F5806F05D12068B9
:10365000006820F0400021680860A06AB0F5005FB3
:103660000DD100BF2068006820F400502168086078
:103670002068006840F400502168086000BF012005
:1036800084F8510000BF002084F8500000BF0320E0
:10369000BDE8F88FFFE7009808B9002702E000981E
:1036A000401E0090206880682840A84201D1012077
:1036B00000E000204045AED10020E9E72C000020CA
:1036C000704710B5FEF794F810BD000000B593B038
:1036D000302107A8FCF7D0FD142102A8FCF7CCFD8F
:1036E00000BF002001902648006840F08050244927
:1036F00008600846006800F08050019000BF00BFDD
:1037000000BF002001901F48006840F440401D4960
:1037100008600846006800F44040019000BF00BF08
:10372000012007900004089002200D9041050E91A1
:103730000F210F91D8211091022111910421129192
:1037400007A8FEF799FB08B1FDF7C2F8FEF72CF9C0
:1037500008B1FDF7BDF80F20029002200390002071
:1037600004904FF4A05005904FF48050069005212E
:1037700002A8FEF75FF908B1FDF7AAF813B000BD83
:1037800040380240007000400348006840F4700078
:10379000014908607047000088ED00E010B502485C
:1037A000FFF796F910BD0000A800002070B5044690
:1037B000A56B0020E8852846FFF788F970BD70B535
:1037C00006460025B46B20684069C0F3C01594F824
:1037D0004100212805D125B10020E084204600F0D9
:1037E000C8F820684069C0F3801594F84200222888
:1037F00005D125B10020E085204600F074F8606C0A
:1038000040F0100060642046FFF760F970BD70B5AD
:103810000546AC6B2868006800F48070002842D12F
:10382000E08500BF00BF21680C3151E8001F21F482
:10383000807021680C3141E80002002AF3D100BFFA
:1038400000BF00BF2168143151E8001F21F00100C2
:103850002168143141E80002002AF3D100BF00BF03
:1038600000BF2168143151E8001F21F04000216899
:10387000143141E80002002AF3D100BF202084F86F
:103880004200206B01280ED100BF00BF21680C311F
:1038900051E8001F21F0100021680C3141E80002BE
:1038A000002AF3D100BF00206063206B012804D1FF
:1038B000A18D2046FFF7ECF802E02046FFF778FBE9
:1038C00070BD70B50546AC6B01206063206B0128AC
:1038D00005D1A08D41082046FFF7DAF802E0204626
:1038E000FFF767FB70BD00BF00BF02680C3252E8F3
:1038F000002F22F4907102680C3242E80013002B72
:10390000F3D100BF00BF00BF0268143252E8002F9D
:1039100022F001010268143242E80013002BF3D1B7
:1039200000BF016B01290ED100BF00BF02680C323D
:1039300052E8002F22F0100102680C3242E8001316
:10394000002BF3D100BF202180F842100021016339
:10395000704710B504462068C06820F04000216818
:10396000C860202084F841002046FFF782FB002039
:1039700010BD00BF00BF02680C3252E8002F22F0D9
:10398000C00102680C3242E80013002BF3D100BFE3
:10399000202180F841107047F8B504460025002624
:1039A00094F84200222873D1A068B0F5805F0BD153
:1039B000206948B9A66A20684068C0F308003080D2
:1039C000A06A801CA06214E0A56AA068B0F5805FC0
:1039D00003D0A06828B9206918B920684068287009
:1039E00004E02068406800F07F002870A06A401C56
:1039F000A062E08D401E80B2E085002846D120689C
:103A0000C06820F020002168C8602068C06820F4E9
:103A100080702168C8602068406920F0010021683A
:103A20004861202084F8420000206063206B012858
:103A300026D10020206300BF00BF21680C3151E86F
:103A4000001F21F0100021680C3141E80002002A1B
:103A5000F3D100BF2068006800F0100010280AD1E0
:103A600000BF002000902068006800902068406837
:103A7000009000BF00BFA18D2046FFF709F802E0CB
:103A80002046FFF795FA0020F8BD01E00020FBE793
:103A90000220F9E72DE9F84F04462068006920F478
:103AA0004050E1680843216808612169A068084323
:103AB00061690843E169084300902068C06849F2E1
:103AC0000C618843009908432168C86020684069F8
:103AD00020F44070A1690843216848617649206854
:103AE000884203D075492068884203D1FEF75CF90B
:103AF000814602E0FEF748F98146E069B0F5004FE3
:103B00006CD102206168A0FB015003461920A9FB7B
:103B1000007001462A463846FCF764FB6421B0FB7E
:103B2000F1F04FEA001A02206168A0FB01510B4638
:103B30001920A9FB00712A463846FCF753FB83463F
:103B400002206168A0FB015003461920A9FB007107
:103B50002A463846FCF746FB6421B0FBF1F000EB47
:103B6000C00101EB0010ABEB8000322101EBC00083
:103B70006421B0FBF1F000F0F8000AEB400A0220EB
:103B80006168A0FB015003461920A9FB00700146A3
:103B90002A463846FCF726FB834602206168A0FBD4
:103BA000015003461920A9FB00712A463846FCF74C
:103BB00019FB6421B0FBF1F000EBC00101EB001038
:103BC000ABEB8000322101EBC0006421B0FBF1F0CF
:103BD00000F007005044216888606AE004206168B2
:103BE000A0FB015003461920A9FB007001462A469C
:103BF0003846FCF7F7FA824604206168A0FB0150C2
:103C000003461920A9FB007001462A463846FCF7F6
:103C1000E9FA6421B0FBF1F000EBC00101EB001008
:103C2000AAEB8000322101EB00106421B0FBF1F01F
:103C300000F0F00A04206168A0FB0170034619201F
:103C4000A9FB00513A462846FCF7CCFA6421B0FBA8
:103C5000F1F00AEB001A04206168A0FB01510B4649
:103C60001920A9FB00712A463846FCF7BBFA8346A7
:103C700004206168A0FB015003461920A9FB0070D5
:103C800001462A463846FCF7ADFA6421B0FBF1F054
:103C900000EBC00101EB0010ABEB8000322101EB27
:103CA00000106421B0FBF1F000F00F0050442168D7
:103CB0008860BDE8F88F000000100140001401404A
:103CC00077B581B0044615460298A062A58500200C
:103CD0006064222084F842002C48E16BC8632C48C1
:103CE000E16B08642B48E16BC8640020E16B086558
:103CF00002AE32682368191D2B46E06BFDF71CFBF2
:103D000038B110206064202084F84200012004B003
:103D100070BD00BF002000902068006800902068FF
:103D20004068009000BF00BF206970B100BF00BFB5
:103D300021680C3151E8001F41F4807021680C317A
:103D400041E80002002AF3D100BF00BF00BF216894
:103D5000143151E8001F41F001002168143141E89D
:103D60000002002AF3D100BF00BF00BF2168143158
:103D700051E8001F41F040002168143141E8000281
:103D8000002AF3D100BF0020C1E700000F3800086F
:103D9000C3380008BF370008014691F841002128C8
:103DA00028D18868B0F5805F0BD1086948B90A6AE4
:103DB0001088C0F308000B685860086A801C08620D
:103DC00005E00B6A581C086218780B685860C88CAC
:103DD000401E80B2C88458B90868C06820F08000CE
:103DE0000B68D8600868C06840F040000B68D86075
:103DF000002070470220FCE72DE9F84304460D46F9
:103E000017469846089E31E0701C70B3FDF7EAFC37
:103E1000A0EB0800B04200D816B90320BDE8F88333
:103E20002068C06800F00400F8B1802D1ED0402D3D
:103E30001CD020680068C0F3C000B0B100BF0020F3
:103E4000009020680068009020684068009000BFE3
:103E500000BF2046FFF747FD0820606400BF002038
:103E600084F8400000BF0120D8E7FFE72068006821
:103E70002840A84201D1012000E00020B842C3D070
:103E80000020CBE710B50248FEF722FE10BD00006F
:103E9000F000002000BFFEE77CB5044600201D4670
:103EA000164600290BD0491ECDE90041044B6A4655
:103EB0002946304600F0F4F8009A002111707CBDCC
:103EC000CF47000802480068C0F302207047000096
:103ED0000CED00E010B5002804DB0A07130E054ABC
:103EE000135406E00A07140E034A00F00F031B1FC9
:103EF000D45410BD00E400E018ED00E002E008C872
:103F0000121F08C1002AFAD170477047002001E053
:103F100001C1121F002AFBD1704700002DE9FF5F8D
:103F200082B00021DDE90430020DDDF840B003432A
:103F300018D044F61050A2F2FF32424315141198E3
:103F400001281FD0A5EB0B00401C5FEA000A4FF0D0
:103F500000064E4FDFF83891B046504615D5CAF1ED
:103F6000000413E0119801244AA3012801D16FEA4B
:103F70000B010298119AC0E90031C0E9024206B073
:103F8000BDE8F09FCBF10000DFE704460021404A86
:103F9000491842EB0450CDE9001012E0E00707D0C9
:103FA00032463B4640464946FCF74DFA8046894634
:103FB00032463B4610461946FCF745FA06460F4680
:103FC0006410002CEAD1DDE90401DDE90023BAF137
:103FD000000F06DAFCF737FA42464B46FCF733FA95
:103FE00005E0FCF7A2FA42464B46FCF79EFA04466F
:103FF0000E460022284BFCF71FFB03D84FF0FF3082
:10400000014607E00022254B20463146FCF774F9B3
:10401000FCF7FAFA102409E0002C0ADB0A2200233C
:10402000FCF7E0F8039B30321A55641E50EA010297
:10403000F2D1641C039AC4F111031444119A012AA9
:1040400003D0012208430DD10AE0084304D0002028
:104050004FF0110B119072E7A3EB0B056D1E0DE0F5
:104060005B4504DD4FF0000205F1010504E003DAD1
:104070004FF00002A5F10105002AECD00298119939
:10408000C0E90231C0E9004579E7000000001440B2
:104090000000F03F300000000000F0430000E03F6F
:1040A0002DE9FF4F95B09B468946064600250FE255
:1040B000252877D100242746F84A0121059400E0FD
:1040C000044316F8013F203B01FA03F01042F7D1F8
:1040D00030782A2811D06FF02F033078A0F1300209
:1040E000092A16D8059A44F0020402EB820203EB77
:1040F00042021044761C0590EFE759F8042B059214
:10410000002A03DA504244F40054059044F00204BB
:10411000761C30782E2816D116F8010F44F00404CE
:104120002A280DD06FF02F023078A0F13003092B30
:1041300009D807EB870302EB4303C718761CF3E7A4
:1041400059F8047B761C30786C280FD006DC4C289C
:1041500017D068280DD06A2814D104E0742810D034
:104160007A280FD10DE044F400140AE044F48014DE
:1041700001E044F440147278824202D104F58014C4
:10418000761C761C307866280BD013DC582877D044
:1041900009DC002875D04528F6D04628F4D04728F9
:1041A0001AD19DE118E0632835D0642879D06528BC
:1041B00012D195E1702873D008DC6728F1D0692806
:1041C0006FD06E280DD06F2806D1B5E073282CD0A3
:1041D000752875D0782874D05A46179990476D1C69
:1041E00075E1C4F30250022809D003280DD0D9F894
:1041F000001004280DD00D6009F1040967E1D9F819
:104200000010EA17C1E90052F6E7D9F800100D8056
:10421000F2E70D70F0E719F8041B8DF8001000208C
:104220008DF80100EA46012003E059F804AB4FF095
:10423000FF3061074FF0000102D40DE008F10101E9
:104240008846B9420FDA8045F8DB1AF808100029D1
:10425000F4D108E008F1010188468142FADB1AF83E
:1042600008100029F6D105985B46A0EB0807214607
:104270003846179A00F094FA284400EB080507E046
:104280004DE029E10DE01AF8010B5A4617999047C5
:10429000B8F10108F7D25B4621463846179A13E178
:1042A00042E00A220092C4F302524FF0000A022AAE
:1042B00008D059F804CB032A4FEAEC710AD00DE07C
:1042C00029E02AE009F1070121F00702F2E802C122
:1042D000914609E00FFA8CFC4FEAEC71042A03D1F5
:1042E0004FFA8CFC4FEAEC71002907DA0A460021EC
:1042F000DCF1000C61EB02012D2202E0220504D565
:104300002B228DF80420012203E0E20701D02022B5
:10431000F7E7904659E00A2102E010220DE0102153
:104320004FF0000A00910BE010224FF0000A44F019
:1043300004040827009203E008224FF0000A0092CC
:10434000C4F30252022A05D059F804CB0021032AF3
:1043500008D009E009F1070121F00702F2E802C1E3
:10436000914605E01FFA8CFC042A01D10CF0FF0CE9
:104370004FF00008220728D5702806D0009B83F054
:10438000100353EA0A0305D00EE040228DF8042002
:10439000012208E05CEA010206D030228DF80420F8
:1043A0008DF8050002229046009B83F0080353EA33
:1043B0000A030AD15CEA010201D1620705D5302265
:1043C0008DF804204FF001087F1E582804D034A037
:1043D00003900EA802900DE036A0F9E75346604620
:1043E000009AFBF7FFFE84460398825C0298401E09
:1043F000029002705CEA0100F0D1029806A9081A46
:1044000000F1200A600702D524F4803400E001277F
:10441000574502DDA7EB0A0000E0002000EB0A018F
:10442000009005984144401A0590E00306D45B468D
:104430002146179A059800F0B3F90544002706E0D5
:1044400001A85A46C05D179990476D1C7F1C4745CF
:10445000F6DBE0030CD55B462146179A059800F081
:104460009FF9054404E030205A46179990476D1C87
:104470000099481E00900029F5DC08E00298029996
:104480005A460078491C0291179990476D1CBAF161
:104490000001AAF1010AF1DC65E100000928010030
:1044A00030313233343536373839616263646566AA
:1044B000000000003031323334353637383941426C
:1044C000434445460000000000F058F90544761CBE
:1044D000307800287FF4ECAD19B02846BDE8F08FA5
:1044E000620700D4062709F1070222F0070CFCE856
:1044F0000223E14603F000485FEA080C02D00FF205
:10450000702C0DE05FEA045C02D50FF2682C07E026
:104510005FEAC47C02D00FF2602C01E0AFF2700CB5
:104520004FF0FF3823F00043CDF850C065280CD081
:1045300006DC452809D046281DD047283DD13DE05E
:10454000662818D067287ED138E00021112F01DBC2
:10455000112000E0781CCDE9000106A90EA8FFF7A4
:10456000DDFCDDE90F010E9A03910021009207F1B5
:10457000010A04914DE04FF000400097CDE9011091
:1045800006A90EA8FFF7CAFCDDE90F0203920E9BF5
:1045900011990022DDF80CA00093049211B9791C46
:1045A00000EB010AB7EB0A0004D4C0F1FF3007F1B9
:1045B000010A0490AAEB0700019044E0012F00DA01
:1045C00001270021112F01DD112000E03846CDE93F
:1045D000000106A90EA8FFF7A1FCDDE90F010E9A64
:1045E0000391002104910092BA4621070CD403994B
:1045F000514500DA8A46BAF1010F05DD009AAAF1A9
:104600000101515C302908D0B84202DA10F1040FE0
:1046100006DA0121CDE9011015E0AAF10101E9E76F
:10462000002805DC049901440491AAEB000102E092
:10463000411C514500DD8A460499401A401C0190F6
:104640004FF000400290200704D40198504501DB50
:10465000CDF8048000208DF84F0002980DF14F072F
:10466000B0F1004F25D02B200E9002984FF0020899
:1046700000280CDA404202902D200E9007E00A211B
:104680000298FBF704FE3031029007F8011DB8F1E3
:104690000001A8F10108F2DC02980028EFD1791E90
:1046A0000E980870307800F0200040F0450007F8C0
:1046B000020D12A8C01B00F107081498007800B181
:1046C000012000EB0A01019801EBE07105984144DB
:1046D000401A401E0590E00306D45B462146179A17
:1046E000059800F05DF805441498007818B15A4612
:1046F000179990476D1CE00324D55B462146179A15
:10470000059800F04DF805441CE00498002807DBEC
:10471000DDE90301884203DD0098405C179901E060
:10472000179930205A469047049805F10105401C1E
:1047300004900198401E019004D12E205A461799EA
:1047400090476D1CBAF10001AAF1010ADDDC05E019
:1047500017F8010B5A46179990476D1CB8F10001E4
:10476000A8F10108F4DC5B462146179A0598ABE6F0
:104770002D0000002B000000200000002DE9F0417A
:10478000044600251E461746880404D405E0394631
:104790002020B0476D1C641EF9D52846BDE8F08185
:1047A0002DE9F041044600251E469046C80301D578
:1047B000302700E02027880404D505E0414638462C
:1047C000B0476D1C641EF9D52846BDE8F0814A68E3
:1047D000002A06D00A68531C0B6010704868401EFF
:1047E0004860704710B5044624480088012808D165
:1047F00023480078042804D10620224908700020AC
:1048000010BD1F480078012802D18020206010E0F0
:104810001B480078022802D14002206009E0FEF720
:1048200039FE40F2514216491748FEF7F9F80020C8
:10483000E6E72068401D11490988884209D9FEF73A
:1048400029FE40F251420E490F48FEF7E9F80020D8
:10485000D6E70B4840780A498978C943C9B28842EB
:1048600009D0FEF717FE40F2514205490648FEF70F
:10487000D7F80020C4E70120C2E700003C00002078
:10488000A401002040000020A8000020FCF7BCFF8D
:10489000FEF71CFFFEF788FCFEF76AFCFEF70EFD34
:1048A000FEF7CEFCFEF7EEFC054B4FF480520549B7
:1048B0000548FCF795F901E000F026F8FCE7000058
:1048C0005000002000040240F80500200FB430B56D
:1048D000ADF5017D054686A800904FF4007101A852
:1048E000009B859AFFF7D8FA044600200090A2B2F8
:1048F000FF2301A92846FEF75DFB20460DF5017D4B
:1049000030BC5DF814FB00002DE9F0419C480078B4
:10491000072816D2DFE800F004161946BAE0E100D5
:104920000C23984A00219848FCF78EF995480078A6
:10493000012803D102209249087002E00120904929
:10494000087019E1FEF798FB16E1904800780028FE
:104950001FD18C480278431C8DA19648FFF7B6FF03
:1049600040F251419448FBF787FC002093490870BE
:1049700040F2514290499248FEF752F830B191A16D
:104980008C48FFF7A3FF01207D49087001207F4973
:1049900008708A48007820B9FEF78AFD0A20FCF7E3
:1049A0003DFDE9E08E48FFF71DFF08B9BDE8F08145
:1049B0008B4801688048C01CFBF7D9FE06467E493B
:1049C00087480068001D095C7B4A85480068C01C58
:1049D000105C41EA0027BE424BD11046447877482C
:1049E0000078844216D17548007830B17D4800685F
:1049F0007B49096808447B490860042060490870C5
:104A000079A16C48FFF762FF6C480078401C6B4945
:104A100008702DE069480078401EC0B2A0420CD159
:104A200078A16448FFF752FF40F25142624964485E
:104A3000FDF7F6FFFEF722FDB8E77AA15D48FFF724
:104A400045FF40F251425C495D48FDF7E9FFFEF742
:104A500021FD7A480078401CC0B2784908700528CA
:104A600005D10846027876A15248FFF72FFF9DE74F
:104A70000BE07EA14F48FFF729FF40F251424E491B
:104A80004F48FDF7CDFFFEF705FD75E04A48407839
:104A900080B15348008883B2474AD21C79480168E4
:104AA0003948FCF79AF9774800684D490968084485
:104AB0007449086040F251423F494148FDF7B0FF58
:104AC000FEF7DCFC3D480078012801D1FEF7F0FC40
:104AD00005202B4908704FE04EE0FEF7DBFC642018
:104AE000FCF79CFCFEF7CAFC6420FCF797FCFEF781
:104AF000DFFC6420FCF792FCFEF7C0FC394802683A
:104B000061A12C48FFF7E2FE364801686448FEF7D1
:104B1000F5FB00241FE033480068001BB0F5806FF0
:104B200002D34FF4806502E02E480068051B40F276
:104B300051412148FBF7A0FBABB21F4A04F580515D
:104B40001148FCF781F8564960182A461A49FEF7C1
:104B500053FC04F58064234800688442DBD30020C2
:104B6000084908700C230A4600210748FCF735F96C
:104B700001200349087000BF00BF00BF16E7000016
:104B80004000002098010020F80500203E00002091
:104B90005B494E464F5D3A7570646174655F666C43
:104BA00061673A25640D0A76657273696F6E3A25FE
:104BB000730D0A00F0000020A40100204100002035
:104BC000A80000205B4552524F525D207573617200
:104BD00074206F70656E206661696C65640D0A00F3
:104BE00038000020340000205B494E464F5D2052C3
:104BF00065636965766564204E6F726D616C0D0A40
:104C0000000000005B494E464F5D205265636965B8
:104C10007665642053616D65205061636B65740D2A
:104C20000A0000005B4552524F525D20466174619C
:104C30006C204572726F7265640D0A00420000209C
:104C40005B494E464F5D2053797374656D526573B1
:104C5000657420666174616C5F6572726F725F6308
:104C60006F756E743A25640D0A0000005B45525260
:104C70004F525D20435243204572726F7265640D3E
:104C80000A000000300000205B494E464F5D206660
:104C9000696C655F73697A653A25640D0A000000E6
:104CA00000C00008000610160006101600000000E4
:104CB00000000000010203040607080900000000CC
:104CC00001020304E44C0008000000205000000032
:104CD000FC3E0008344D0008500000201012000077
:104CE0000C3F000800000000000000000000000071
:104CF00000000000010000000000000000000000B3
:104D00000000000000000000100000000100000092
:104D10000024F4000010000000000000000000006B
:104D2000000000000000000056312E30000000009E
:044D3000000000007F
:04000005080001AD41
:00000001FF
