:020000040800F2
:10C00000C8060020C1C100086BF300089DED0008C0
:10C0100069F300087BC70008090001080000000060
:10C0200000000000000000000000000041F90008CE
:10C030007DC700080000000075F7000843F90008FC
:10C04000DBC10008DBC10008DBC10008DBC1000860
:10C05000DBC10008DBC10008DBC10008DBC1000850
:10C06000DBC10008DBC10008DBC10008DBC1000840
:10C07000DBC10008DBC10008DBC10008DBC1000830
:10C08000DBC10008DBC10008DBC10008DBC1000820
:10C09000DBC10008DBC10008DBC100087FC7000866
:10C0A000DBC1000801FA0008DBC10008F5F900084F
:10C0B000DBC10008DBC10008DBC10008DBC10008F0
:10C0C000DBC10008DBC10008DBC10008DBC10008E0
:10C0D000DBC10008FDFF0008DBC10008DBC1000870
:10C0E000DBC10008DBC10008DBC10008DBC10008C0
:10C0F000DBC10008DBC10008DBC10008DBC10008B0
:10C10000DBC10008DBC10008DBC10008DBC100089F
:10C1100091FC0008DBC100080DFA0008DBC1000833
:10C12000DBC10008DBC10008DBC10008DBC100087F
:10C13000DBC10008DBC10008DBC10008DBC100086F
:10C14000DBC10008DBC10008DBC10008DBC100085F
:10C15000DBC10008DBC10008DBC10008DBC100084F
:10C16000DBC10008DBC10008DBC10008DBC100083F
:10C17000DBC10008DBC10008DBC1000800000000D3
:10C18000DBC10008DBC10008DBC10008DBC100081F
:10C19000DBC10008DBC10008DBC10008DBC100080F
:10C1A000DBC10008DBC10008DBC10008DFF80CD0F0
:10C1B00000F062FA0048004775090108C80600202F
:10C1C0000648804706480047FEE7FEE7FEE7FEE731
:10C1D000FEE7FEE7FEE7FEE7FEE7FEE7E5F900081B
:10C1E000ADC100082DE9F05F0546002092469B4650
:10C1F00088460646814640241BE02846414647467D
:10C20000224600F070F853465A46C01A914110D3A6
:10C2100011461846224600F057F82D1A67EB010820
:10C220004F4622460120002100F04EF817EB00098E
:10C230004E41201EA4F10104DFDC484631462A4667
:10C240004346BDE8F09F40EA01039B0703D009E0A5
:10C2500008C9121F08C0042AFAD203E011F8013BF2
:10C2600000F8013B521EF9D27047D2B201E000F84B
:10C27000012B491EFBD270470022F6E710B513468A
:10C280000A4604461946FFF7F0FF204610BD421C3F
:10C2900010F8011B0029FBD1801A704730B50B46FE
:10C2A000014600202022012409E021FA02F59D42E6
:10C2B00005D303FA02F5491B04FA02F52844151EBA
:10C2C000A2F10102F1DC30BD202A04DB203A00FAA1
:10C2D00002F1002070479140C2F1200320FA03F3DD
:10C2E000194390407047202A04DB203A21FA02F0DB
:10C2F0000021704721FA02F3D040C2F120029140A0
:10C300000843194670472DE9FE4F804681EA030035
:10C31000C00F0C46009021F0004123F00045B8EB1F
:10C320000200A94105D24046214690461C460B46D4
:10C33000024623F00040104347D0270DC7F30A0000
:10C34000C3F30A510290401A019040286BDAC3F3FC
:10C35000130040F4801B0098924620B10023D2EBDA
:10C36000030A63EB0B0B01985946C0F1400250469B
:10C37000FFF7AAFF06460D4650465946019A00F0BF
:10C380008DF910EB08006141002487EA115284EA1C
:10C39000E7731A4340D0009A62B3019A012A4FEA28
:10C3A000075215DC001B61EB02014FF0004202EA6C
:10C3B0000752CDE90042001C41F5801132462B4660
:10C3C00000F08DF903B0BDE8F08F40462146F9E753
:10C3D000001B61EB0201001C41F5801300185B415A
:10C3E0002018A2F5001747EB030140EAD570B619F3
:10C3F0006D4111E06D084FEA360645EAC0754FEA17
:10C400000752001B61EB0201001C41F58011490835
:10C410004FEA30000019514132462B4603B0BDE8C7
:10C42000F04F00F04DB90098012240000023D0EBFE
:10C43000020263EBE073009821464FEAE074B8EB28
:10C44000000061EB0401E9E783F000435BE781F062
:10C45000004158E72DE9FE4F81EA030404F000444F
:10C4600021F0004100944FF0000B23F0004350EA0C
:10C4700001045ED052EA03045BD0C3F30A54C1F353
:10C480000A552C44A4F2F3340194A0FB0254C1F3E6
:10C49000130141F48011C3F3130343F4801301FB30
:10C4A000024400FB034E840A970A44EA815447EA97
:10C4B0008357A4FB076802958D0A05FB07854FEAA1
:10C4C000932C04FB0C542705029D4FEA065847EABB
:10C4D0001637B5EB08056EEB070C870E920E47EA90
:10C4E000811742EA8312A7FB0201B6EB0B0164EB52
:10C4F00000042B0D43EA0C335E1844EB1C50DA4663
:10C500005146E7FB0201C5F313044FEA0B3343EA3C
:10C5100014534FEA0432019C43EA0603A4F10C04CD
:10C520000294009CCDE900B400F0D9F803B0BDE856
:10C53000F08F00200146F9E72DE9F04D81EA030470
:10C5400004F0004B21F0004514464FF0000A23F0A0
:10C55000004150EA050220D054EA01021DD0C5F383
:10C560000A570246C5F31303C1F31300C1F30A5679
:10C5700040F4801543F48013A7EB0608101BD64641
:10C5800008F2FD3873EB050002D308F1010801E061
:10C5900092185B41B8F1000F03DA00200146BDE8B4
:10C5A000F08D00204FF48011064684460EE0171BE4
:10C5B00073EB050705D3121B63EB050306434CEA37
:10C5C000010C49084FEA300092185B4150EA01071C
:10C5D000EDD152EA030012D082EA040083EA050199
:10C5E000084305D0101BAB4106D20122002306E010
:10C5F00000224FF0004302E06FF0010253101AEBEB
:10C6000006004CEB085110EB0A0041EB0B01BDE8B2
:10C61000F04D00F055B8C1F30A52C1F3130140F2D6
:10C62000FF3341F480119A4202DA0020014670473C
:10C6300040F233439A42A2F2334202DC5242FFF705
:10C6400052BEFFF741BE000030B5041E71F1000478
:10C6500004DB4FF00044404264EB0101141E73F10F
:10C66000000405DB1C464FF00043524263EB040319
:10C67000994208BF904230BD064C074D06E0E06885
:10C6800040F0010394E8070098471034AC42F6D319
:10C69000FFF790FD4C1501086C150108202A06DBF8
:10C6A000CB17203A41FA02F043EAE07306E041FA80
:10C6B00002F3D040C2F1200291400843194670476E
:10C6C00010B5141E73F1000408DA401C41F100019A
:10C6D00092185B411A4301D120F0010010BD2DE9F1
:10C6E000F04D92469B4611B1B1FA81F202E0B0FAE8
:10C6F00080F220329046FFF7E7FD04460F4640EAFD
:10C700000A0041EA0B0153465A46084313D011462A
:10C7100053EA010019D0C8F140025046FFF7E3FD8B
:10C7200005460E46504659464246FFF7CDFD0843A2
:10C7300005D0012004E020463946BDE8F08D0020F8
:10C74000054346EAE0762C4337430A986305E40A3A
:10C75000A0EB08000022FD0A44EA47540A3002D543
:10C7600000200146E9E7010510196941DDE90845A6
:10C7700000196941BDE8F04DA2E7FEE770474FF4AC
:10C78000807000F0D3B972B6FEE78188006801229C
:10C7900000F0D5BA81880068002200F0D0BA70B5E8
:10C7A00004461D462160A2803622294604F1080075
:10C7B000FFF749FDE88EE087A86B2064A88FA4F8F6
:10C7C0004400E88FA4F84600112205F1400104F16D
:10C7D0004800FFF738FD95F8510084F85900686D5E
:10C7E000E06504F16102511E204600F031F894F832
:10C7F0006000C82801D0012070BD002070BD2DE967
:10C80000F843064614461D4603208DF80000080C28
:10C810008DF80100080A8DF802008DF803103046EB
:10C82000FFF7B8FF4FF0FF3706F108003B46042240
:10C830006946804601F082F928B93B462A462146DE
:10C84000404601F0CDF83046FFF79FFFBDE8F88382
:10C850002DE9F04188B005460F4690469020062607
:10C8600000240594069407940294039404948DF88C
:10C8700014002846FFF78EFF601E0090334602AA80
:10C8800005A905F1080001F022FA2846FFF77DFF0F
:10C890009DF80C0038709DF80D0088F8000008B075
:10C8A000BDE8F0813EB504460BA00068029005206B
:10C8B00001902046FFF76EFF4FF0FF3000900223FB
:10C8C00002AA01A904F1080001F001FA2046FFF7CD
:10C8D0005CFF9DF809003EBD00010000F0B585B089
:10C8E00005460C460426202714216846FFF7C4FCA1
:10C8F0008DF80070200C8DF80100200A8DF80200E0
:10C900008DF803402846FFF745FF731F32466946FE
:10C9100005F1080001F012F92846FFF736FF05B0CF
:10C92000F0BD00002DE9F04107460A4C256840F6AD
:10C93000B83608E02068401BB04204D93846BDE84C
:10C94000F041FFF722BF3846FFF7ACFFC007F1D137
:10C95000BDE8F0810800002038B50446002901D068
:10C96000062100E0042100912046FFF713FF4FF05D
:10C97000FF330122694604F1080001F0DFF8204688
:10C98000FFF703FF38BD2DE9F04106460C46174678
:10C99000984625050AD101213046FFF7DDFF2146E3
:10C9A0003046FFF79BFF3046FFF7BCFF43463A4651
:10C9B00021463046BDE8F041AFF300802DE9F84F45
:10C9C00081460E4690461D4631E0F7B2C7F58074A9
:10C9D000A54200D22C4601214846FFF7BDFF0220A8
:10C9E0008DF80000300C8DF80100300A8DF802003F
:10C9F0008DF803704846FFF7CDFE4FF0FF3709F181
:10CA000008003B4604226946824601F097F83B46FF
:10CA100022464146504601F091F84846FFF7B5FEE0
:10CA20004846FFF77FFFA0442644281B85B2002D0F
:10CA3000CBD1BDE8F88F2DE9F0410446A76D00F099
:10CA400085F9054694F835000026022806D0802096
:10CA5000606584F834600120BDE8F08120680168D9
:10CA600021F0160101602068416921F080014161D7
:10CA7000206C08B9A06C20B12068016821F0080181
:10CA800001602068016821F0010101600BE000F005
:10CA90005DF9401B052806D920203434206203208C
:10CAA00060702670D8E720680068C007EFD1343482
:10CAB0003F2094F828108840B860012060702670EC
:10CAC0000020C9E790F83510022903D08021416584
:10CAD00001207047052180F835100068016821F0B9
:10CAE0000101016000207047406D704770B5044639
:10CAF00000F02CF90546601C02D00448007804447C
:10CB000000F024F9401BA042FAD370BD00000020C1
:10CB1000B0F5807F06D104490020096848620248C8
:10CB200001F0B2BA704700004C01002010B5044972
:10CB30000A68024202D00860FFF7EAFF10BD000059
:10CB4000143C01402DE9F84F0022DFF8B0914FF07E
:10CB5000010803274FF00F0C09F1040AA9F1040B97
:10CB600008FA02F50B682B40AB426ED10C7904F049
:10CB70000304012C01D0022C15D18668540007FA59
:10CB800004FE26EA0E06D1F80CE00EFA04FE4EEA88
:10CB9000060EC0F808E04468AC430D79C5F30015F3
:10CBA0009540254345600C79E443A40708D0C56847
:10CBB000540007FA04F6B5438E68A6402E43C660BB
:10CBC0000C7904F00304022C11D1D40800EB840684
:10CBD000356A5407E40E0CFA04FE25EA0E05D1F876
:10CBE00010E00EFA04FE4EEA050EC6F820E00568D5
:10CBF000540007FA04F6B5430E7906F00306A64082
:10CC00002E4306604C6814F4403F71D03C4C2568BC
:10CC100045F480452560246804F480440094394C30
:10CC200022F003052E19D6F8085894074FEA147E0F
:10CC30000CFA0EF4A543344CA04201D100242EE09E
:10CC4000324CA04202D1012429E051E0304CA042F4
:10CC500001D1022423E02F4CA04201D103241EE085
:10CC60002D4CA04201D1042419E02C4CA04201D14A
:10CC7000052414E02A4CA04201D106240FE0294CDF
:10CC8000A04201D107240AE0274CA04201D1082488
:10CC900005E0264CA04201D1092400E00A2404FA50
:10CCA0000EF42C43C6F80848D9F800409C434D6860
:10CCB000ED0200D51C43C9F80040DAF800409C435F
:10CCC0004D68AD0200D51C43CAF80040DBF80040B7
:10CCD0009C434D68AD0300D51C43CBF80040074D85
:10CCE000083D2C689C434E68F60300D51C432C601D
:10CCF000521C102AFFF434AFBDE8F88F083C014005
:10CD0000443802400030014000000240000402406C
:10CD100000080240000C02400010024000140240D3
:10CD200000180240001C0240002002400024024083
:10CD30000069084201D00120704700207047002A96
:10CD400001D08161704709048161704701488068A2
:10CD5000704700000000002090F83D20202A01D0FC
:10CD600002207047242280F83D200268136823F0D7
:10CD7000010313600268536A23F0100353620268D0
:10CD8000536A0B43536201680A6842F001020A6069
:10CD9000202180F83D100020704790F83D20202A87
:10CDA00001D002207047242280F83D2002681368D9
:10CDB00023F0010313600268536A23F00F030B434F
:10CDC00099B2516201680A6842F001020A602021AA
:10CDD00080F83D100020704770B50446002C04D048
:10CDE00094F83D00002510B106E0012070BD84F8E4
:10CDF0003C50204600F05EF9242084F83D00206875
:10CE0000016821F0010101602068016841F40041DE
:10CE100001602068016821F40041016000F014FB0A
:10CE20004F4B6168994203D84E49884203D304E0CE
:10CE30004D49884201D2012070BD4C49B0FBF1F14F
:10CE40002268566826F03F060E43566062689A4292
:10CE500001D8491C07E04FF4967251434FF47A729F
:10CE6000B1FBF2F1491C2268166A26F03F063143F5
:10CE700011626168994210D84900401EB0FBF1F27E
:10CE8000521CC2F30B02042A01D2042022E0B0FBA0
:10CE9000F1F0401CC0F30B001CE0A268F2B301EB00
:10CEA000C10303EB0116431EB3FBF6F35B1C43F413
:10CEB00080431B0549D092B301EBC10202EB011183
:10CEC000401EB0FBF1F0401CC0F30B0040F480406A
:10CED00040F400402168CA694CF6FF739A4310433E
:10CEE000C861D4E9071001432068026822F0C0023B
:10CEF00011430160D4E9030101432068826848F2CC
:10CF0000FF339A4311438160D4E90510014320683F
:10CF1000C26822F0FF021143C16001E00EE016E09A
:10CF20002068016841F0010101602564202084F837
:10CF30003D00256384F83E50002070BD01EB4106A2
:10CF4000431EB3FBF6F35B1CB3E70120C2E701EB22
:10CF50004101401EB0FBF1F0401CC0F30B00B7E7ED
:10CF6000A086010080841E0000093D0040420F00A1
:10CF70002DE9FF4F83B00446DDE911988A469346B8
:10CF8000109DFFF7E3FE064694F83D00202803D0ED
:10CF9000022007B0BDE8F08F192301224349204643
:10CFA000009601F0A1FF08B10220F2E794F83C00DE
:10CFB000012807D0012084F83C0020680168C907D7
:10CFC00002D005E00220E4E7016841F001010160C0
:10CFD0002068016821F400610160212084F83D008F
:10CFE000402084F83E00002727646562A4F82A9058
:10CFF000608D20852E48E062CDE900865A46514674
:10D000002046069B01F0E2FE80B30120C1E73246D4
:10D010004146204602F022F848B1206C042804D191
:10D020002068016841F4007101600120B1E7606A85
:10D03000216800780861656A6D1C6562208D401E5C
:10D0400080B22085618D491E618523685969C94375
:10D0500049070BD450B128781861606A401C60629F
:10D06000208D401E2085608D401E6085208D00280B
:10D07000CDD132464146204601F00AFF48B1206C2E
:10D08000042804D12068016841F400710160012086
:10D090007FE71F3454F81F0C016841F400710160F0
:10D0A0002020A077E7776777002072E70200100062
:10D0B0000000FFFF10B586B00446142101A8FFF759
:10D0C000DBF814492068884221D100211248026807
:10D0D00042F002020260006800F0020000904FF48B
:10D0E00040700190122002900391032004900420CC
:10D0F000059001A90948FFF725FD07481030016890
:10D1000041F400110160006800F40010009006B0C6
:10D1100010BD0000005400403038024000040240BE
:10D120000248816802781144816070470000002045
:10D1300010B50B48016841F400710160016841F4C9
:10D1400080610160016841F480710160032000F09A
:10D1500071F80F2000F006F800F026F8002010BD4E
:10D16000003C024070B504460D4D4FF47A712878AA
:10D17000B1FBF0F00B490968B1FBF0F000F0A4FE40
:10D1800008B1012070BD102C07D200222146501E8C
:10D1900000F030F86C60002070BD012070BD000010
:10D1A000000000200C00002008B50A48016841F486
:10D1B00080410160006800F4804000900548001F35
:10D1C000016841F080510160006800F080500090DB
:10D1D00008BD000044380240002809DB00F01F02AF
:10D1E000012191404009800000F1E020C0F80011C9
:10D1F00070470000F0B40D460D4B1B68C3F30223CB
:10D20000C3F10704042C00D90424191D072901D2F5
:10D21000002300E0DB1E012606FA04F1491E294026
:10D2200099409E40761E16403143F0BC02F018BF74
:10D230000CED00E000F00701054A10684FF6FF030F
:10D24000184040EA0120034908431060704700007D
:10D250000CED00E00000FA05BFF34F8F05480168B0
:10D26000054A01F4E06111430160BFF34F8F00BF35
:10D27000FDE700000CED00E00400FA052DE9F8439D
:10D280001848016841F080510160006800F080504A
:10D290000090DFF854800127C8F84070FFF756FD72
:10D2A00005464FF47A76114C07E0FFF74FFD401B1F
:10D2B000B04202D90320BDE8F8836068C003F4D50A
:10D2C000C8F84470FFF742FD054606E0FFF73EFD53
:10D2D000401BB04201D90320EDE760688003F5D51B
:10D2E0000020E8E74038024000000E420070004095
:10D2F0002DE9F04704460D46002C13D0DFF82891A5
:10D30000D9F80000EFB200F00F00A8420CD289F863
:10D310000070D9F8000000F00F00A84204D00120EE
:10D32000BDE8F0870120FBE72068404E810712D559
:10D33000400703D5306840F4E050306020780007A3
:10D3400003D5306840F4604030603068A16820F058
:10D35000F000084330602078C00731D0334960685E
:10D360000839012808D002280BD0032809D0096801
:10D3700089070BD40120D3E70968890306D401206B
:10D38000CEE70968890101D40120C9E7316821F09D
:10D39000030101433160FFF7D9FC804641F2883A2E
:10D3A00007E0FFF7D3FCA0EB0800504501D90320AC
:10D3B000B6E73068616800F00C00B0EB810FF0D187
:10D3C000D9F8000000F00F00A84209D989F80070D0
:10D3D000D9F8000000F00F00A84201D001209FE71B
:10D3E0002078400705D53068E16820F4E050084314
:10D3F00030602078000706D53068216920F460404D
:10D4000040EAC100306000F03FF83168084AC1F3DB
:10D410000311515CC8400749086007480068FFF7DE
:10D42000A1FE00207CE70000003C024008380240DA
:10D430009A0A01080C00002004000020014800683E
:10D44000704700000C00002000B5FFF7F7FF04490B
:10D450000968044AC1F38221515CC84000BD000044
:10D4600008380240AA0A010800B5FFF7E7FF04499F
:10D470000968044AC1F34231515CC84000BD000054
:10D4800008380240AA0A010810B51748006810F0D1
:10D490000C01164816D0164B042912D0082911D1B8
:10D4A000114C241F216801F03F02216849020AD56E
:10D4B0002068C0F38810A0FB03010023FEF792FE52
:10D4C00009E0184610BD21680023C1F38811A1FBB3
:10D4D0000001FEF787FE2168C1F30141491C4900A4
:10D4E000B0FBF1F010BD0000083802400024F40049
:10D4F00040787D012DE9F84F0446002C13D02078A8
:10D50000DFF8A083C007A8F1040556D008F1040095
:10D510000168C1F3810101290CD00068C0F38100CA
:10D52000022803D00DE00120BDE8F88FD8F80000F4
:10D53000400206D5286880033FD5606870BB012093
:10D54000F2E76068B0F5803F10D0B0F5A02F12D0A0
:10D55000286820F480302860286820F48020286023
:10D560006068E0B1FFF7F2FB064614E0286840F47B
:10D5700080302860F4E7286840F48020286028681C
:10D5800040F480302860EBE7FFF7E0FB801B642865
:10D5900001D90320C8E728688003F5D50DE0FFF71F
:10D5A000D5FB064606E0FFF7D1FB801B642801D9B6
:10D5B0000320B9E728688003F5D42078BA4F8007A4
:10D5C0004FF0000948D5B748001D016811F00C0F55
:10D5D00008D00068C0F38100022813D1D8F80000F9
:10D5E00040020FD42868800704D5E068012801D0E4
:10D5F000012099E72868216920F0F80040EAC1007D
:10D60000286029E0E068B8B101203860FFF79EFB90
:10D61000064606E0FFF79AFB801B022801D903208B
:10D6200082E728688007F5D52868216920F0F8008E
:10D6300040EAC10028600FE0C7F80090FFF786FBC2
:10D64000064606E0FFF782FB801B022801D9032073
:10D650006AE728688007F5D42078000729D5DFF825
:10D6600044A2924861690AF1700A89B101210160FE
:10D67000FFF76CFB064606E0FFF768FB801B0228FD
:10D6800001D9032050E7DAF800008007F4D510E054
:10D69000C0F80090FFF75AFB064606E0FFF756FB7E
:10D6A000801B022801D903203EE7DAF8000080073A
:10D6B000F4D42078400778D54FF0000A79483C3000
:10D6C0000068C0000BD477483C30016841F08051BD
:10D6D0000160006800F0805000904FF0010ADFF810
:10D6E000D0B1DBF80000C00514D4DBF8000040F432
:10D6F0008070CBF80000FFF729FB064606E0FFF735
:10D7000025FB801B022801D903200DE7DBF8000070
:10D71000C005F4D5634EA0686C3601280FD00528EB
:10D7200012D0306820F001003060306820F0040032
:10D730003060A068F8B1FFF709FB834617E0306856
:10D7400040F001003060F4E7306840F004003060E1
:10D75000306840F001003060EBE7FFF7F7FAA0EB2C
:10D760000B0141F28830814201D90320DCE63068A8
:10D770008007F2D510E0FFF7E9FA834609E0FFF7EA
:10D78000E5FAA0EB0B0141F28830814201D9032078
:10D79000CAE630688007F2D4BAF1010F05D14148DA
:10D7A0003C30016821F080510160A069C0B33D495F
:10D7B000091D09684FF0FF36C1F38101022946D0E7
:10D7C000022805D0C7F86090FFF7C0FA04463AE097
:10D7D000C7F86090FFF7BAFA814607E0FFF7B6FA9C
:10D7E000A0EB0900022801D903209DE628688001EA
:10D7F000F4D4D4E907010843616AA26A890106EBFF
:10D80000520241EA0241084394F82C1040EA0160B8
:10D81000C8F8000001203866FFF798FA044607E0D0
:10D820003DE0FFF793FA001B022801D903207BE6B5
:10D8300028688001F5D532E0FFF788FA001B02283E
:10D8400001D9032070E628688001F5D427E001287B
:10D8500023D0D8F80000E26900F4800191421AD187
:10D86000226A00F03F01914215D147F6C071626A09
:10D870000140B1EB821F0ED1A26A00F4403106EBE9
:10D880005202B1EB024F06D194F82C1000F07060F8
:10D89000B0EB016F03D0012046E6012044E60020F2
:10D8A00042E600000438024000004742800E474232
:10D8B0000070004070B50446002C09D0606A002555
:10D8C00040B125616561A56294F8510040B10CE05A
:10D8D000012070BD6068B0F5827FF4D0E561F2E7A9
:10D8E00084F85050204600F045F8022084F851009A
:10D8F0002068016821F040010160A088218900F4BE
:10D90000827001F404410843A18901F400610843D5
:10D91000217C01F002010843217D01F0010108434F
:10D92000218B01F400710843217F01F03801084385
:10D9300094F8201001F080010843218D01F400517A
:10D94000084321680860A069042101EA104094F8A6
:10D95000241001F010010843216848602068C16963
:10D9600021F40061C1616565012084F85100002047
:10D9700070BD000010B586B00446142101A8FEF762
:10D980007BFC14492068884221D10021124802689A
:10D9900042F480420260006800F4804000900E482B
:10D9A0001038026842F002020260006800F00200D3
:10D9B00000904FF4604001900220029003910320F8
:10D9C00004900520059001A90448FFF7BBF806B0B4
:10D9D00010BD000000380040403802400004024002
:10D9E0002DE9F84F04468A4691461D4694F85100A9
:10D9F000012802D00220BDE8F88FBAF1000F08D04C
:10DA0000B9F1000F05D060680427B0F5827F02D01D
:10DA100003E00120EFE7A068F0B1FFF797F90646B1
:10DA200094F85000012821D04FF0010884F850806C
:10DA300084F8517000276765C4F838A0A4F83C90BA
:10DA4000A4F83E902763A786E78627646764A068EA
:10DA5000B0F5004F0CD015E084F851704B4652469B
:10DA600051462046009500F032F9C4E70220C2E793
:10DA70002068016821F0400101602068016821F4FC
:10DA80008041016020680168490603D4016841F0C3
:10DA900040010160E068B0B135E020688168C907E5
:10DAA00009D0007BA16B0870A06B401CA063E08FC5
:10DAB000401EE08707E0FFF749F9801BA84201D329
:10DAC000681C04D11DB1E08F0028E6D11EE084F867
:10DAD000518084F8507003208DE720688168C90761
:10DAE00009D0C068A16B0880A06B801CA063E08F88
:10DAF000401EE08707E0FFF729F9801BA84201D309
:10DB0000681C13D195B1E08F0028E6D13246294632
:10DB1000204601F030FE08B12020606584F8518075
:10DB200084F85070606D38B1012064E784F851804A
:10DB300084F8507003205EE700205CE72DE9F84F81
:10DB400004468A4617461D46FFF700F9064694F834
:10DB50005100012802D00220BDE8F88FBAF1000F71
:10DB600023D0380021D094F8500001281FD04FF066
:10DB7000010984F85090032084F851004FF0000808
:10DB8000C4F85480C4F830A0A786E786C4F838806B
:10DB9000A4F83C80A4F83E80C4F84480C4F84080D7
:10DBA000A068B0F5004F04D00DE00120D4E70220BA
:10DBB000D2E72068016821F0400101602068016817
:10DBC00041F48041016020680168490603D401687E
:10DBD00041F040010160E068B0F5006F04D060687A
:10DBE00088B3012F30D050E0606808B1012F20D1F8
:10DBF000206B21680088C860206B801C2063E08E49
:10DC0000401EE08615E020688168890709D5216BF0
:10DC10000988C160206B801C2063E08E401EE08676
:10DC200007E0FFF793F8801BA84201D3681C04D1DA
:10DC30001DB1E08E0028E6D12AE084F8519084F8E6
:10DC40005080032088E7FFE7206B21680078087385
:10DC5000206B401C2063E08E401EE08615E02068AB
:10DC60008168890709D5216B09780173206B401CF5
:10DC70002063E08E401EE08607E0FFF767F8801B18
:10DC8000A84201D3681C0ED16DB1E08E0028E6D108
:10DC900032462946204601F0B5FD08B120206065D6
:10DCA000A06830B109E084F8519084F850800320D6
:10DCB00052E72068C1688068009084F8519084F829
:10DCC0005080606D08B1012046E7002044E72DE94F
:10DCD000FF4F81B004460E9E93461F460125FFF775
:10DCE00035F8804694F85100616801280AD0B1F5F2
:10DCF000827F03D1A16809B9042803D0022005B0AE
:10DD0000BDE8F08F0298A0B3BBF1000F32D038000D
:10DD100030D094F8500001282ED04FF0010A84F83A
:10DD200050A094F85100042802D0052084F8510036
:10DD30004FF00009C4F85490C4F838B0E787A787BB
:10DD400002982063E786A786C4F84090C4F8449000
:10DD500020680168490603D4016841F04001016070
:10DD6000E068B0F5006F09D06068F0B3012F4DD0C6
:10DD700082E0FFE70120C2E70220C0E7606808B147
:10DD8000012F3CD1206B21680088C860206B801C6B
:10DD90002063E08E401EE08631E0206881688907BC
:10DDA0000DD5E18E59B1012D09D1216B0988C160D2
:10DDB000206B801C2063E08E401EE08600252068DA
:10DDC0008168C9070BD0E18F49B1C068A16B088099
:10DDD000A06B801CA063E08F401EE0870125FEF74A
:10DDE000B5FFA0EB0800B04200E00FE007D3701CC5
:10DDF00005D084F851A084F8509003207FE7E08E8E
:10DE00000028CAD1E08F0028C7D13BE0206B2168F1
:10DE100000780873206B401C2063E08E401EE08673
:10DE20002AE02068816889070DD5E18E59B1012D5E
:10DE300009D1216B09780173206B401C2063E08EAF
:10DE4000401EE086002520688168C9070BD0E18F5D
:10DE500049B1C068A16B0870A06B401CA063E08F43
:10DE6000401EE0870125FEF771FFA0EB0800B042DD
:10DE700001D3701C12D18EB1E08E0028D1D1E08F79
:10DE80000028CED142463146204601F0BBFC58B1B5
:10DE90002020606584F85090012030E784F851A07C
:10DEA00084F8509003202AE7A06818B92068C16858
:10DEB0008068009084F851A084F85090606D08B19B
:10DEC00001201CE700201AE710B5401EB0F1807F4A
:10DED00001D3012010BD4FF0E02460610F216017D5
:10DEE00002F0BEF80020A06107202061002010BDD4
:10DEF0007047704770B590F83C20012A31D0012658
:10DF000080F83C60022280F83D20026854689368E3
:10DF100024F070050C682C435460134C0268A24234
:10DF200014D0B2F1804F11D0104CA2420ED0104C40
:10DF3000A2420BD00F4CA24208D00F4CA24205D0F7
:10DF40000E4CA24202D00E4CA24204D123F0800318
:10DF50004968194391603C304670002101700020EF
:10DF600070BD022070BD00000000014000040040B0
:10DF700000080040000C0040000401400040014047
:10DF80000018004010B50446002C03D094F83D0062
:10DF900010B107E0012010BD002084F83C002046AD
:10DFA00000F016F8022084F83D00211D206801F0E1
:10DFB00033FD01203D3460726070A070E07020710C
:10DFC0006071A071E07120722070002010BD00000F
:10DFD00010B586B00446142101A8FEF74DF9264A73
:10DFE00020680021904231D12448026842F00102A9
:10DFF0000260006800F001000090204814380268B8
:10E0000042F010020260006800F0100000904FF42F
:10E01000007001900220029003910491012005906C
:10E0200001A91748FEF78EFD002211461920FFF7BF
:10E03000E1F81920FFF7D0F8002211461B20FFF766
:10E04000D9F81B20FFF7C8F806B010BD0D4988426B
:10E05000FAD10A48001F016841F010010160006810
:10E0600000F010000090002202213620FFF7C2F8D5
:10E070003620FFF7B1F8E7E70000014044380240DE
:10E08000001002400010004090F83D10012901D01E
:10E0900001207047022180F83D100168CA6842F0F3
:10E0A0000102CA6000681449884214D0B0F1804F60
:10E0B00011D0124988420ED0114988420BD0114923
:10E0C000884208D01049884205D01049884202D0C1
:10E0D0000F49884209D1816801F00701062908D05B
:10E0E000016841F00101016003E0016841F00101B4
:10E0F0000160002070470000000001400004004063
:10E1000000080040000C00400004014000400140B5
:10E11000001800400168CA6822F00102CA60016864
:10E120000A6A41F211131A4207D10A6A9B101A4275
:10E1300003D10A6822F001020A60012180F83D1033
:10E140000020704770B50446002594F83C00012873
:10E1500017D0012684F83C60022084F83D00206836
:10E16000826822F0770222F47F4282600868502899
:10E1700038D00DDC202853D005DC90B3102811D105
:10E180004EE0022070BD30284AD040280AD13DE040
:10E19000602831D070280CD0B0F5805F03D0B0F586
:10E1A000005F12D001253C346670002020702846A4
:10E1B00070BDCB68D1E90121206801F0A4FC206882
:10E1C000816841F077018160EDE7CB68D1E90121F9
:10E1D000206801F098FC2068816841F480418160EA
:10E1E000E1E71DE0CA684968206801F09EFC502103
:10E1F000206801F092FCD6E7CA684968206801F0FF
:10E20000E5FC6021206801F088FCCCE7CA68496819
:10E21000206801F08AFC4021206801F07EFCC2E702
:10E2200022680146104601F078FCBCE72DE9F04178
:10E2300004464249206888423CD1207F0026404D58
:10E2400001281DD0022835D10421204600F0A4FA6F
:10E250000746A88880B30421204600F09DFA0146B5
:10E260002068C06AB5F90220821AA888401E00EB17
:10E270004003C3EBC01002EBC0000844E86027E095
:10E28000EE602E610021204600F086FA6880286941
:10E29000B5F9021008442861687870B1022809D1E4
:10E2A0006869B5F9021008442649884202D2032061
:10E2B00068706E61BDE8F08102E001206870F9E7E6
:10E2C0000421204600F068FAB5F90210401AE8600F
:10E2D0001B4A6878921D1C49012807D1EB688B42C4
:10E2E00004D96E709078401C907022E0012809D10A
:10E2F000EB688B4206D2022068702068C06AC01B9F
:10E30000686116E0032807D1EB688B4204D250788D
:10E31000401C50706E700CE0042802D0032802D01C
:10E3200006E06E7005E0E868884201D96E7000E092
:10E330006E70AE804FF0FF306880BBE70000014098
:10E340002800002020A10700C0C62D0070B505469A
:10E350000C46002695F83C0001280FD0012085F8D6
:10E360003C006AB1042A1CD0082A2CD00C2A3BD0CD
:10E370000126002085F83C00304670BD022070BDAB
:10E38000D4E90012E368286801F0E0FB286881699D
:10E3900021F00C01816128688169A26811438161C3
:10E3A000E7E7D4E90012E368286801F021FC286857
:10E3B000816921F44061816128688169A26841EA2C
:10E3C00002218161D5E7D4E90012E368286801F0F1
:10E3D0002AFC2868C16921F00C01C1612868C16963
:10E3E000A2681143C161C4E7D4E90012E368286858
:10E3F00001F032FC2868C16921F44061C1612868DC
:10E40000C169A26841EA0221C161B2E710B50446C0
:10E41000002C03D094F83D0010B107E0012010BD9E
:10E42000002084F83C00204600F015F8022084F813
:10E430003D00211D206801F0EFFA01203D3460729B
:10E440006070A070E07020716071A071E071207246
:10E450002070002010BD704730B50446002500290B
:10E460000FD0042910D0082911D094F8410089B1A7
:10E47000042912D0082913D094F84520012814D17A
:10E4800011E094F83E00F2E794F83F00EFE794F8CB
:10E490004000ECE794F84220F0E794F84320EDE7E1
:10E4A00094F84420EAE7012A01D0012030BD02207F
:10E4B000B1B1042917D0082918D084F84100C1B19E
:10E4C000042919D008291AD084F84500D1B10429AB
:10E4D0001ED0082922D00C2926D0012555B354E09E
:10E4E00084F83E00EBE784F83F00E8E784F840005A
:10E4F000E5E784F84200E9E784F84300E6E784F8BA
:10E500004400E3E72068C26842F00202C260E5E727
:10E510002068C26842F00402C260DFE72068C26877
:10E5200042F00802C260D9E72068C26842F01002D7
:10E53000C260D3E70122206801F0D8FA14492068AC
:10E54000884214D0B0F1804F11D0124988420ED0C9
:10E55000114988420BD01149884208D0104988429D
:10E5600005D01049884202D00F49884209D18168FC
:10E5700001F00701062908D0016841F0010101609E
:10E5800003E0016841F001010160284630BD000050
:10E59000000001400004004000080040000C004062
:10E5A0000004014000400140001800402DE9F04106
:10E5B00004462068C56806694FF00007B10714D506
:10E5C000A90712D5F91E0161012020772068806912
:10E5D000800703D02046FFF729FE05E0204600F023
:10E5E00081F8204600F07FF82777700717D5680775
:10E5F00015D521686FF0040008610220207720689B
:10E60000806910F4407F03D02046FFF70FFE05E03D
:10E61000204600F067F8204600F065F827773007BD
:10E6200016D5280714D521686FF00800086104206A
:10E6300020772068C069800703D02046FFF7F6FDE9
:10E6400005E0204600F04EF8204600F04CF8277711
:10E65000F00617D5E80615D521686FF0100008619F
:10E66000082020772068C06910F4407F03D020463E
:10E67000FFF7DCFD05E0204600F034F8204600F00E
:10E6800032F82777F00708D0E80706D021686FF046
:10E6900001000861204600F027F8300608D528065A
:10E6A00006D521686FF0800008612046FFF720FC46
:10E6B000700608D5680606D521686FF0400008612D
:10E6C000204600F07FF8B0060AD5A80608D52168D4
:10E6D0006FF0200008612046BDE8F041FFF709BC5B
:10E6E000BDE8F0817047704710B5006822490124E9
:10E6F000884231D1214900228B1D4878022802D05E
:10E7000001280ED01DE0486900F57A70486148691B
:10E710001B4CA04215D94A701878401C18704A61E9
:10E720000FE00878A8B1086900F57A7008610869F7
:10E73000144CA04205D90A619878401C98700420B6
:10E740004870488810F4E04F02D18888401C8880C7
:10E7500010BD0C704A70F4E70B498842F8D181155E
:10E760000A48FEF7E5FA08B909480470BDE8104008
:10E770000848FFF7CFBC000000000140280000203F
:10E7800020A10700C0C62D0000100040001002406C
:10E79000400000204C01002002460020002908D043
:10E7A000042909D008290AD00C2901D11068006C6D
:10E7B00070471068406B70471068806B7047106836
:10E7C000C06B70477047704770B5044620680C30C6
:10E7D00050E8001F21F4907140E80012002AF5D1A2
:10E7E0002068143050E8001F21F0010140E80012B9
:10E7F000002AF5D1206B012809D120680C3050E89F
:10E80000001F21F0100140E80012002AF5D1206815
:10E8100040694FF00005400615D52068143050E8D7
:10E82000001F21F0400140E80012002AF5D1E06B02
:10E8300048B10565E06BFEF7FEF820B1E06BFEF72E
:10E8400053F9202806D0E585202084F8420025636E
:10E85000002070BD10206064032070BD7047000070
:10E86000F8B5044622681068D168536900F00F06B5
:10E87000002E08D1850606D58D0604D52046BDE8B4
:10E88000F84001F046BA0025002E66D003F00106DC
:10E8900001F49077374360D0C20705D0CA0503D58D
:10E8A000626C42F001026264420705D5DA0703D0C8
:10E8B000626C42F002026264820705D5DA0703D077
:10E8C000626C42F004026264020707D501F0200284
:10E8D000324303D0626C42F008026264626C002A28
:10E8E00031D0800604D5880602D5204601F011FA01
:10E8F00020684069C0F38010616C090700D438B308
:10E90000204601F0D2F92068406940061CD52068F5
:10E91000143050E8001F21F0400140E80012002AA6
:10E92000F5D1E06B60B15F490165E06BFEF7CAF8B5
:10E93000002808D0E06B016D01B0BDE8F040084749
:10E940002046FFF78BFFF8BD2046FFF787FFF8BD95
:10E950002046FFF783FF6564F8BD236B012B7DD153
:10E96000C3067BD5CB0679D51068506800905069F6
:10E970004FF0200340064FF002064FD5E26B1068BF
:10E98000406880B2DF00E8B3A18D81423BD9E085C9
:10E99000D069B8422DD020680C3050E8001F21F417
:10E9A000807140E80012002AF5D12068143050E848
:10E9B000001F21F0010140E80012002AF5D1206873
:10E9C000143050E8001F21F0400140E80012002AF6
:10E9D000F5D184F84230256320680C3050E8001FE0
:10E9E00021F0100140E80012002AF5D1E06BFEF79B
:10E9F00022F86663A08DE18D401A81B22046FFF7B0
:10EA0000E2FEF8BDFFE7A18D8142FAD1D069B8429C
:10EA1000F7D166632046FFF7D6FEF2E7A08DE18DC1
:10EA2000401A81B2E08D0028EBD00029E9D020689F
:10EA30000C3050E8002F22F4907240E80027002F9D
:10EA4000F5D12068143050E8002F22F0010240E890
:10EA50000027002FF5D184F8423000E00FE0256355
:10EA600020680C3050E8002F22F0100240E800230C
:10EA7000002BF5D166632046FFF7A5FEC1E702062D
:10EA800006D50A0604D52046BDE8F84001F04CBA88
:10EA90004006B6D54806B4D52046BDE8F84001F09A
:10EAA0002BB900009DFC000870B50446002C04D072
:10EAB00094F84100002510B106E0012070BD84F8F3
:10EAC0004050204600F024F8242084F841002068BB
:10EAD000C16821F40051C160204601F07FF920682F
:10EAE000016921F4904101612068416921F02A0106
:10EAF00041612068C16841F40051C1606564202013
:10EB000084F8410084F842006563002070BD000075
:10EB100070B586B00446142101A8FDF7ADFB2B4E5D
:10EB2000216800252A4A032302242A48B14224D11D
:10EB3000274910310E6846F400260E60096801F47A
:10EB400000210091116841F001011160116801F08C
:10EB5000010100910193029403950493082105910A
:10EB600001A9FDF7EFFF002201213420FEF742FB4F
:10EB70003420FEF731FB06B070BD174EB142FAD11A
:10EB8000134914310E6846F010060E60096801F052
:10EB900010010091116841F001011160116801F04C
:10EBA000010100914FF4C061019102940395049317
:10EBB0000721059101A9FDF7C5FF002201212520AC
:10EBC000FEF718FB2520FEF707FBD4E7004C0040BA
:10EBD0003038024000000240001001402DE9F84F9B
:10EBE00004460E461546984694F84200202802D066
:10EBF0000220BDE8F88FBEB1B5B1002060642221CB
:10EC000084F842102063FEF7A1F88246A585E585C9
:10EC1000A0684FF48057B84201D1206930B1354621
:10EC200000264FF0200928E00120E2E70025F8E760
:10EC30005346002220212046CDF8008001F0A3F9A0
:10EC400018B184F842900320D3E725B1A068B842F8
:10EC500019D038B108E020684068C0F3080026F8F1
:10EC6000020B07E0206970B12068406800F07F0067
:10EC700028706D1CE08D401EE085E08D0028D7D106
:10EC800084F84290B5E7206840682870F1E790F872
:10EC90004230202B01D00220704721B11AB100234D
:10ECA000036301F025B901207047000010B500682A
:10ECB0000A49884211D1FEF749F809494860088895
:10ECC0003F2801D2401C088009880648BDE8104052
:10ECD000014401220448FFF7DABF10BD004C004098
:10ECE0005000002088020020940100202DE9F84304
:10ECF00004460E4615461F4694F84100202802D0CF
:10ED00000220BDE8F8837EB175B100206064212047
:10ED100084F84100FEF71AF88146A584E584A068CE
:10ED2000B0F5805F02D003E00120EAE7206920B15E
:10ED3000354600264FF0200815E00025FAE74B463F
:10ED4000002280212046009701F01DF918B184F8B7
:10ED500041800320D5E7ADB1216815F8010B48606B
:10ED6000E08C401EE084E08C0028E8D14B46002275
:10ED700040212046009701F006F950B184F8418007
:10ED80000320BEE736F8020B2168C0F30800486094
:10ED9000E6E784F841800020B3E77047FEE70168AA
:10EDA0004A69D24352050FD46FF480624A61002150
:10EDB00040F8301F202242738173026942F004023E
:10EDC0000261017301207047002070472DE9F8436C
:10EDD0000446DDE908970D46164698462068016806
:10EDE00041F4807101604B4600224FF00111204632
:10EDF000009700F079F848B120680068C00502D596
:10EE00004FF4007020640320BDE8F883216805F00A
:10EE1000FE0008613B464A461C49204600F0BAF80D
:10EE200008B10120F0E720684169806900903A4606
:10EE30004946204600F012F948B1206C042804D15C
:10EE40002068016841F4007101600120DCE7F5B23F
:10EE5000B8F1010F0CD02168300A08613A464946E2
:10EE6000204600F0FBF868B1206C042803D007E0CE
:10EE70002068056108E02068016841F400710160C4
:10EE80000120C1E7206805610020BDE70200010004
:10EE900070B504460D4616461FE02046FFF77FFF7B
:10EEA00008B1012070BD681C17D0FDF74FFF801B13
:10EEB000A84200D88DB920684069C04340070CD5EE
:10EEC000002044F8300F20216173A073216941F0C4
:10EED000200121612073012070BD20684069C0437A
:10EEE0004007DAD4002070BD2DE9F0470446DDF874
:10EEF00020900D4690461E46C5F307472FE0701C34
:10EF00002DD0FDF723FFA0EB0900B04200D836BB9F
:10EF1000012F17D02068806925EA00000004000C4A
:10EF20001BD0002040451AD1002044F8300F20218A
:10EF30006173A073216941F02001216120730120D8
:10EF4000BDE8F0872068406925EA00000004000C55
:10EF500001D00020E6E70120E4E70120E2E7012FED
:10EF60000BD02068806925EA00000004000C0FD057
:10EF700000204045C3D00020E2E72068406925EA30
:10EF800000000004000C01D00020F2E70120F0E7AF
:10EF90000120EEE72DE9F04704460D461646984657
:10EFA0004FF000094FF0200AC5F3074743E02068FF
:10EFB0004069C043400517D42068016841F40071DE
:10EFC000016021686FF480604861C4F8309084F873
:10EFD0003DA084F83E90206C40F00400206484F84A
:10EFE0003C900120BDE8F087701C24D0FDF7AEFEF8
:10EFF000A0EB0800B04200D8EEB9012F14D0206871
:10F00000806925EA00000004000C14D0C4F8309098
:10F0100084F83DA084F83E90206C40F020002064ED
:10F0200084F83C900120DDE72068406925EA000073
:10F030000004000CEAD1012F08D02068806925EA7D
:10F0400000000004000CB2D10020CBE7206840692A
:10F0500025EA00000004000CF6D0A8E770B50446CD
:10F060000D4616461FE02046FFF799FE08B1012025
:10F0700070BD681C17D0FDF769FE801BA84200D840
:10F080008DB920684069C04300060CD5002044F8C3
:10F09000300F20216173A073216941F020012161AB
:10F0A0002073012070BD20684069C0430006DAD497
:10F0B000002070BDF0B587B0142102A8FDF7DCF880
:10F0C00000262348016841F080010160016801F0D9
:10F0D00080010191016841F001010160016801F0C6
:10F0E00001010191016841F010010160016801F026
:10F0F00010010191016841F002010160006800F017
:10F10000020001900122134F140321463846FDF7F7
:10F1100016FE221102924FF4041203920125049567
:10F1200002A90D48FDF70EFD0294039504960220F6
:10F13000059002A93846FDF705FD0022114617206B
:10F14000FEF758F81720FEF747F807B0F0BD0000AB
:10F1500030380240000402400010024010B514484C
:10F16000124901601349416000218160C1604FF480
:10F170008042026141618161C1610162FDF72CFE43
:10F1800008B1FDF700FB00210948FDF7E5FD08B1D6
:10F19000FDF7F9FA00210648FDF7FFFD002803D02E
:10F1A000BDE81040FDF7EFBA10BD0000005400406C
:10F1B00058000020801A060010B50F480D49016064
:10F1C0004FF48271416000218160C1600161416141
:10F1D0004FF400728261C1610162416281620A2161
:10F1E000C162FEF767FB002803D0BDE81040FDF7C1
:10F1F000CABA10BD00380040AC00002030B58BB05A
:10F2000000240794089409940A94059406940194A0
:10F21000029403940494254823490160B32141607A
:10F22000846040F2E731C160046144618021816102
:10F23000FEF7A8FE08B1FDF7A6FA4FF4805007903C
:10F2400007A91A48FEF77EFF08B1FDF79CFA174898
:10F25000FFF7DCF808B1FDF796FA20200590069438
:10F2600005A91248FEF746FE08B1FDF78CFA022503
:10F27000019501200290039408200490002201A926
:10F280000A48FFF763F808B1FDF77DFA019402958B
:10F290000494042201A90548FFF758F8002801D07A
:10F2A000FDF771FA0BB030BD0000014004010020F1
:10F2B0001CB50024009401940E480D4901605921A9
:10F2C0004160846040F2E731C1608461FEF75AFE1C
:10F2D00008B1FDF758FA20200090019469460548CE
:10F2E000FEF708FE002801D0FDF74DFA1CBD000016
:10F2F000001000404C01002010B50C480A49016084
:10F300004FF4E131416000218160C16001610C2254
:10F3100042618161C161FFF7C7FB002803D0BDE8EE
:10F320001040FDF730BA10BD004C004094010020A1
:10F3300010B50C480A4901604FF4E13141600021E9
:10F340008160C16001610C2242618161C161FFF78E
:10F35000ABFB002803D0BDE81040FDF714BA10BD88
:10F3600000100140DC010020FEE7FEE770B500253B
:10F3700005F1B000C0B200F081F8002000F07EF886
:10F38000102000F07BF80024002000F08BF8641CB3
:10F39000E4B2802CF8D36D1CEDB2042DE8D370BD1F
:10F3A00070B56420FDF7A2FB0024084D285D00F035
:10F3B00065F8641CE4B2162CF8D3FFF7D7FFBDE85C
:10F3C00070400021084600F003B800001000002043
:10F3D00010B50446B031C8B200F050F8102040EA31
:10F3E000141000F04BF804F00F00BDE8104000F0DE
:10F3F00045B800002DE9F04180460F460024203A30
:10F40000D5B2B8F17F0F02D9A0467F1CFFB2102BF6
:10F4100011D039464046FFF7DBFF164905EB4500A2
:10F4200001EB4005285D00F03DF8641CE4B2062CB9
:10F43000F8D3BDE8F08139464046FFF7C9FF0E4ECC
:10F4400004EB0510305C00F02DF8641CE4B2082CCD
:10F45000F6D37F1CF9B24046FFF7BAFF002404EB55
:10F4600005103044007A00F01DF8641CE4B2082C4A
:10F47000F5D3DEE7B20A0108DA0C010801B584B061
:10F48000012104AACDE900214FF480700B460290BF
:10F49000002278210248FDF76BFD05B000BD000099
:10F4A0005800002001B584B0012104AACDE9002153
:10F4B0004FF480700B460290402278210248FDF7FD
:10F4C00057FD05B000BD0000580000202DE9F047B1
:10F4D0000646FDF73BFC0546DFF8C480D8F804007B
:10F4E000281AB0F5FA7F01D2FDF700FB4FF00009B2
:10F4F0002C4F41F2883A21E00023B8F80020121F77
:10F500001AE0F85CAA2816D1F9184878552812D1C3
:10F51000887802280FD1CC78181900F1050CBCF1BD
:10F52000400F0BDC384490F804C0BCF10D0F02D141
:10F5300040790A2817D05B1C9342E2DBFDF706FCFA
:10F54000401B5045D8D340211648FCF795FEC8F81B
:10F550000490A8F80090012212491348FFF797FB86
:10F560000320BDE8F087F81800793070491D621E4D
:10F57000701CFCF768FE301980F8019040210948A2
:10F58000FCF77AFEA8F80090C8F804900648FFF748
:10F590001BF9012203490448FFF779FB0020E0E74B
:10F5A00050000020880200209401002030B58DB06A
:10F5B000451C2846FCF76BFEC4B2AA208DF800005B
:10F5C00055208DF8010001208DF802008DF80340D0
:10F5D000294622466D4601A8FCF735FE0D21281963
:10F5E00001710A214171A41DE2B2642369460248F7
:10F5F000FFF77CFB0DB030BD940100202DE9FC41EC
:10F600000446284E3078012841D10C23224600219F
:10F610002548FDF7F4F82278631C24A12F4801F057
:10F62000F3F901222E492F48FFF731FB2046FFF75F
:10F63000BDFF2046FFF74AFF05462A462AA1274874
:10F6400001F0E2F92DB92278631C30A1234801F0C2
:10F65000DBF920780025012818D10095019537A104
:10F660001E4801F0D1F96F1E3B46012269461B4836
:10F67000FFF7B4FA0028F7D19DF80000792808D0E8
:10F68000592806D037A1154801F0BEF93570BDE8FC
:10F69000FC810C23224600210348FDF774F9FDF795
:10F6A000DBFDF3E740000020240200204C6F636183
:10F6B0006C204F54415F496E666F3A0D0A75706455
:10F6C0006174655F666C61673A25640D0A766572E0
:10F6D00073696F6E3A25730D0A000000DC0100208B
:10F6E0008802002094010020436C6F7564205665E9
:10F6F0007273696F6E2052656365697665207374F5
:10F70000617475733A25640D0A000000436C6F75CF
:10F7100064204F54415F496E666F3A0D0A757064FC
:10F720006174655F666C61673A25640D0A7665727F
:10F7300073696F6E3A25730D0A00000052656164AB
:10F740007920746F2075706461746520796F7572AB
:10F7500020666C6173683F0D0A7965732F6E6F0DBB
:10F760000A00000072657475726E20746F206170FB
:10F77000700D0A007047F8B504464FF48275606852
:10F780004FF48063A8420AD1A068B0F5004F01D0C1
:10F79000984204D12068066826F04006066060683A
:10F7A000A8421ED1A06898420DD00B4600920022BC
:10F7B0008021204600F064F808B3606D40F020001E
:10F7C00060650320F8BD0B4600920022012120460F
:10F7D00000F056F898B1606D40F02000606503209D
:10F7E000F8BD0B46009200220121204600F048F8A7
:10F7F00028B1606D40F0200060650320F8BD002056
:10F80000F8BD00007CB504460E461546334601227D
:10F8100002212046009500F033F828B1606D40F0D9
:10F820002000606503207CBD134814490068B0FBCC
:10F83000F1F04FF47A71484301906068B0F5827F2F
:10F840000DD13346002280212046009500F018F8A3
:10F8500078B1606D40F02000606503207CBD0198A8
:10F8600038B10198401E019020688068C0430006AE
:10F87000F5D500207CBD00000C00002000366E0194
:10F880002DE9F84304460F4691461E46089DFDF7B4
:10F890005DFA401B351AFDF759FA80462748006883
:10F8A000C0F3CB30684300900DE0701C0BD0FDF727
:10F8B0004DFAA0EB0800A84210D27DB10098B8B371
:10F8C0000098401E00902068806837EA000032D01F
:10F8D00000204845E9D10020BDE8F8832068416850
:10F8E00021F0E00141606068B0F5827F0BD1A06833
:10F8F000B0F5004F02D0B0F5806F04D120680168E8
:10F9000021F040010160A06AB0F5005F09D12068D4
:10F91000016821F4005101602068016841F4005140
:10F920000160012050346070002020700320D3E774
:10F93000FFE70025C7E70120CBE700000C0000200F
:10F940007047FDF7EDBB000070B592B0302106A8FE
:10F95000FCF792FC142101A8FCF78EFC00261F483E
:10F96000016841F080510160006800F08050009013
:10F970001B48016841F440410160006800F44040C8
:10F980000090012006900004079002240C9480014E
:10F990000D900F250E95D8200F90109404201190F3
:10F9A00006A8FDF7A7FD08B1FCF7EDFEFDF766FC24
:10F9B00008B1FCF7E8FE0195029403964FF4A050BD
:10F9C00004904FF480500590052101A8FDF790FCAC
:10F9D000002801D0FCF7D7FE12B070BD40380240BD
:10F9E000007000400248016841F4700101607047F6
:10F9F00088ED00E00148FEF7D9BD000004010020B9
:10FA00000148FEF7D3BD0000040100200148FEF7C5
:10FA1000CDBD00004C0100202DE9F0410268284DC9
:10FA2000284E294FDFF8A4C0294B4FF08048A84248
:10FA300009D0404507D0B04205D0B84203D0604558
:10FA400001D0984203D122F070044A682243A842B0
:10FA50001BD0404519D0B04217D0B84215D06045F0
:10FA600013D0984211D01B4CA0420ED01A4CA04289
:10FA70000BD01A4CA04208D0194CA04205D0194C0A
:10FA8000A04202D0184CA04203D122F44074CA68AC
:10FA900022434C6922F0800222438C68C4620C68C5
:10FAA0008462A84201D0984201D1096901630168CA
:10FAB00041F004010160012141610260BDE8F08173
:10FAC000000001400004004000080040000C00401D
:10FAD0000004014000400140004401400048014052
:10FAE00000180040001C00400020004010B501F04C
:10FAF0001F0101238B40046A9C430462036A8A400D
:10FB00001343036210BD10B5846824F47F4442EAB5
:10FB100003220A432243826010BD826822F07002F1
:10FB20000A4342F007018160704710B5036A046A16
:10FB300024F001040462846924F0F00444EA02140D
:10FB400023F00A020A438461026210BD70B5056A9F
:10FB5000046A24F0010404628469154EB04214D092
:10FB6000B0F1804F11D0134EB0420ED0124EB042C1
:10FB70000BD0124EB04208D0114EB04205D0114EFB
:10FB8000B04202D0104EB04203D124F0030414431B
:10FB900001E044F0010424F0F0041A0744EA126280
:10FBA00025F00A0301F00A0119438261016270BD68
:10FBB000000001400004004000080040000C00402C
:10FBC00000040140004001400018004010B5036AE5
:10FBD000046A24F010040462846924F4704444EA42
:10FBE000023223F0A00343EA01118261016210BDD9
:10FBF00030B5056A046A24F010040462846924F4B0
:10FC0000407444EA022222F470444FF6FF7202EA82
:10FC10000332224325F0A003A02404EA0111194372
:10FC20008261016230BD30B5056A046A24F48074D3
:10FC30000462C46924F00304144324F0F0041A0796
:10FC400044EA126225F420634FF4206404EA01219F
:10FC50001943C261016230BD30B5056A046A24F4FB
:10FC600080540462C46924F4407444EA022222F4F9
:10FC700070444FF6FF7202EA0332224325F4204318
:10FC80004FF4204404EA01311943C261016230BDDE
:10FC90000148FEF7E5BD00009401002010B5806B1F
:10FCA0000021C185FEF7DAFD10BD01680C3151E875
:10FCB000002F22F4907241E80023002BF5D1016857
:10FCC000143151E8002F22F0010241E80023002BFB
:10FCD000F5D1016B012909D101680C3151E8002FE0
:10FCE00022F0100241E80023002BF5D1202180F8FA
:10FCF000421000210163704710B50168CA6822F004
:10FD00004002CA60202180F84110FFF746F8002029
:10FD100010BD08B590F84210222901D0022008BD7C
:10FD200082684FF480539A4201D1016921B1816AFE
:10FD30009A421DD052B10BE0816A02685268C2F348
:10FD400008020A80816A891C816209E002697AB12D
:10FD50000268526802F07F020A70816A491C81625F
:10FD6000C18D491E0904090CC18505D0002008BDBC
:10FD7000026852680A70F0E70168CA6822F020023F
:10FD8000CA600168CA6822F48072CA6001684A6960
:10FD900022F001024A61202180F8421000214163D3
:10FDA000026B012A03D0FEF781FF002008BD01632A
:10FDB00001680C3151E8002F22F0100241E80023C5
:10FDC000002BF5D101680A68D20602D50A68496895
:10FDD0000091818DFEF7F7FCE7E700002DE9F04187
:10FDE000044620680169E26821F440511143016131
:10FDF000A1682069E26901436069104301432068FA
:10FE0000C26849F20C639A430A43C26020684169A0
:10FE1000A26921F44071114341613349206888424D
:10FE200002D03249884202D1FDF71EFB01E0FDF706
:10FE30000BFBE1690023192764253226B1F5004F39
:10FE400028D061688B0F8A00A0FB0701FCF7CAF974
:10FE50000146B0FBF5F07A42504301EB800006EB1F
:10FE60000010B0FBF5F000F0F002B1FBF5F002EB92
:10FE70000012B1FBF5F07B42584301EB800006EB2A
:10FE80000010B0FBF5F0216800F00F00104488600E
:10FE9000BDE8F08161684A18A0FB07015B41FCF7EF
:10FEA000A1F90146B0FBF5F00201B1FBF5F06FF0EE
:10FEB0001803584301EB800006EBC000B0FBF5F0DF
:10FEC00000F0F80002EB4002B1FBF5F0584301EB03
:10FED000800006EBC000B0FBF5F0216800F00700E1
:10FEE00010448860D4E70000001001400014014075
:10FEF00081628285C28500214164222180F84210FE
:10FF00000169002904D00168CA6842F48072CA609D
:10FF100001684A6942F001024A610068C16841F023
:10FF20002001C1600020704790F84110212901D0C4
:10FF3000022070478168B1F5805F01D1016961B12C
:10FF4000016A4A1C0262026809785160C18C491E2C
:10FF50000904090CC1840AD013E0016A0268098807
:10FF6000C1F308015160016A891C0162EEE7016872
:10FF7000CA6822F08002CA600068C16841F040018E
:10FF8000C160002070472DE9F84304460D4617462E
:10FF90009846089E25E0701C23D0FCF7D7FEA0EB06
:10FFA0000800B0421BD8D6B12068C168490718D5EF
:10FFB000802D16D0402D14D00168C943090710D4F4
:10FFC000002521680968406800902046FFF76DFE13
:10FFD0000820606484F840500120BDE8F8830320C5
:10FFE000FBE72068006835EA000004D00020B84232
:10FFF000D1D00020F1E70120F9E700000148FEF729
:020000040801F1
:100000002FBC0000DC010020FEE700000FB4084B0D
:1000100010B504A902AA039800F004F9044602A945
:10002000002000F0A1FC204610BC5DF814FB00008D
:10003000690901087CB5044600201D4616460029C2
:100040000BD0491ECDE90041044B6A462946304693
:1000500000F0E8F8009A002111707CBD53090108F6
:100060000907090E002804DB00F1E02080F80014E5
:10007000704700F00F0000F1E02080F8141D704779
:1000800002E008C8121F08C1002AFAD17047704761
:10009000002001E001C1121F002AFBD170470000BF
:1000A0002DE9FF5F82B00021DDE90430020DDDF8AB
:1000B00040B0034318D044F61050A2F2FF3242433E
:1000C0001514119801281FD0A5EB0B00401C5FEA06
:1000D000000A4FF000064E4FDFF83891B046504608
:1000E00015D5CAF1000413E0119801244AA3012890
:1000F00001D16FEA0B010298119AC0E90031C0E901
:10010000024206B0BDE8F09FCBF10000DFE70446F5
:100110000021404A491842EB0450CDE9001012E09A
:10012000E00707D032463B4640464946FCF792F985
:100130008046894632463B4610461946FCF78AF906
:1001400006460F466410002CEAD1DDE90401DDE922
:100150000023BAF1000F06DAFCF77CF942464B4661
:10016000FCF778F905E0FCF7E7F942464B46FCF767
:10017000E3F904460E460022284BFCF765FA03D843
:100180004FF0FF30014607E00022254B2046314664
:10019000FCF7B9F8FCF73FFA102409E0002C0ADB61
:1001A0000A220023FCF71EF8039B30321A55641E06
:1001B00050EA0102F2D1641C039AC4F11103144401
:1001C000119A012A03D0012208430DD10AE0084305
:1001D00004D000204FF0110B119072E7A3EB0B0538
:1001E0006D1E0DE05B4504DD4FF0000205F10105D9
:1001F00004E003DA4FF00002A5F10105002AECD07B
:1002000002981199C0E90231C0E9004579E7000080
:10021000000014400000F03F300000000000F043F8
:100220000000E03F2DE9FF4F95B09B46894606460A
:1002300000250FE2252877D100242746F84A01211E
:10024000059400E0044316F8013F203B01FA03F057
:100250001042F7D130782A2811D06FF02F03307870
:10026000A0F13002092A16D8059A44F0020402EBE4
:10027000820203EB42021044761C0590EFE759F826
:10028000042B0592002A03DA504244F400540590EE
:1002900044F00204761C30782E2816D116F8010F8F
:1002A00044F004042A280DD06FF02F023078A0F11A
:1002B0003003092B09D807EB870302EB4303C71868
:1002C000761CF3E759F8047B761C30786C280FD045
:1002D00006DC4C2817D068280DD06A2814D104E019
:1002E000742810D07A280FD10DE044F400140AE0ED
:1002F00044F4801401E044F440147278824202D144
:1003000004F58014761C761C307866280BD013DC3C
:10031000582877D009DC002875D04528F6D0462823
:10032000F4D047281AD19DE118E0632835D064281D
:1003300079D0652812D195E1702873D008DC672840
:10034000F1D069286FD06E280DD06F2806D1B5E0A6
:1003500073282CD0752875D0782874D05A461799F0
:1003600090476D1C75E1C4F30250022809D00328A0
:100370000DD0D9F8001004280DD00D6009F1040942
:1003800067E1D9F80010EA17C1E90052F6E7D9F899
:1003900000100D80F2E70D70F0E719F8041B8DF8DE
:1003A000001000208DF80100EA46012003E059F812
:1003B00004AB4FF0FF3061074FF0000102D40DE0B5
:1003C00008F101018846B9420FDA8045F8DB1AF8D6
:1003D00008100029F4D108E008F1010188468142A3
:1003E000FADB1AF808100029F6D105985B46A0EB55
:1003F000080721463846179A00F094FA284400EB83
:10040000080507E04DE029E10DE01AF8010B5A4616
:1004100017999047B8F10108F7D25B462146384654
:10042000179A13E142E00A220092C4F302524FF0FD
:10043000000A022A08D059F804CB032A4FEAEC71CB
:100440000AD00DE029E02AE009F1070121F00702B6
:10045000F2E802C1914609E00FFA8CFC4FEAEC7118
:10046000042A03D14FFA8CFC4FEAEC71002907DA19
:100470000A460021DCF1000C61EB02012D2202E0B2
:10048000220504D52B228DF80420012203E0E20787
:1004900001D02022F7E7904659E00A2102E010221D
:1004A0000DE010214FF0000A00910BE010224FF0F8
:1004B000000A44F004040827009203E008224FF0E9
:1004C000000A0092C4F30252022A05D059F804CB64
:1004D0000021032A08D009E009F1070121F00702F1
:1004E000F2E802C1914605E01FFA8CFC042A01D112
:1004F0000CF0FF0C4FF00008220728D5702806D01A
:10050000009B83F0100353EA0A0305D00EE040225B
:100510008DF80420012208E05CEA010206D03022B6
:100520008DF804208DF8050002229046009B83F090
:10053000080353EA0A030AD15CEA010201D1620707
:1005400005D530228DF804204FF001087F1E582871
:1005500004D034A003900EA802900DE036A0F9E775
:1005600053466046009AFBF73DFE84460398825C42
:100570000298401E029002705CEA0100F0D10298DD
:1005800006A9081A00F1200A600702D524F4803475
:1005900000E00127574502DDA7EB0A0000E000203C
:1005A00000EB0A01009005984144401A0590E003D1
:1005B00006D45B462146179A059800F0B3F9054426
:1005C000002706E001A85A46C05D179990476D1CA8
:1005D0007F1C4745F6DBE0030CD55B462146179AA6
:1005E000059800F09FF9054404E030205A46179919
:1005F00090476D1C0099481E00900029F5DC08E02A
:10060000029802995A460078491C0291179990471E
:100610006D1CBAF10001AAF1010AF1DC65E10000EC
:1006200009280100303132333435363738396162C8
:10063000636465660000000030313233343536378C
:1006400038394142434445460000000000F058F963
:100650000544761C307800287FF4ECAD19B02846AC
:10066000BDE8F08F620700D4062709F1070222F0E7
:10067000070CFCE80223E14603F000485FEA080C9F
:1006800002D00FF2702C0DE05FEA045C02D50FF28D
:10069000682C07E05FEAC47C02D00FF2602C01E016
:1006A000AFF2700C4FF0FF3823F00043CDF850C08C
:1006B00065280CD006DC452809D046281DD04728DF
:1006C0003DD13DE0662818D067287ED138E0002172
:1006D000112F01DB112000E0781CCDE9000106A9F3
:1006E0000EA8FFF7DDFCDDE90F010E9A0391002152
:1006F000009207F1010A04914DE04FF0004000978D
:10070000CDE9011006A90EA8FFF7CAFCDDE90F022A
:1007100003920E9B11990022DDF80CA00093049225
:1007200011B9791C00EB010AB7EB0A0004D4C0F13F
:10073000FF3007F1010A0490AAEB0700019044E0A2
:10074000012F00DA01270021112F01DD112000E027
:100750003846CDE9000106A90EA8FFF7A1FCDDE9A6
:100760000F010E9A0391002104910092BA462107CD
:100770000CD40399514500DA8A46BAF1010F05DD20
:10078000009AAAF10101515C302908D0B84202DA7E
:1007900010F1040F06DA0121CDE9011015E0AAF1EC
:1007A0000101E9E7002805DC049901440491AAEB62
:1007B000000102E0411C514500DD8A460499401ABF
:1007C000401C01904FF000400290200704D4019893
:1007D000504501DBCDF8048000208DF84F000298D1
:1007E0000DF14F07B0F1004F25D02B200E9002984D
:1007F0004FF0020800280CDA404202902D200E90A3
:1008000007E00A210298FBF749FD3031029007F812
:10081000011DB8F10001A8F10108F2DC02980028DE
:10082000EFD1791E0E980870307800F0200040F06B
:10083000450007F8020D12A8C01B00F10708149824
:10084000007800B1012000EB0A01019801EBE07192
:1008500005984144401A401E0590E00306D45B46CB
:100860002146179A059800F05DF805441498007821
:1008700018B15A46179990476D1CE00324D55B4682
:100880002146179A059800F04DF805441CE004989D
:10089000002807DBDDE90301884203DD0098405CA6
:1008A000179901E0179930205A469047049805F1AE
:1008B0000105401C04900198401E019004D12E2097
:1008C0005A46179990476D1CBAF10001AAF1010A26
:1008D000DDDC05E017F8010B5A46179990476D1CAF
:1008E000B8F10001A8F10108F4DC5B462146179A33
:1008F0000598ABE62D0000002B0000002000000052
:100900002DE9F041044600251E461746880404D40C
:1009100005E039462020B0476D1C641EF9D52846F5
:10092000BDE8F0812DE9F041044600251E469046C1
:10093000C80301D5302700E02027880404D505E04E
:1009400041463846B0476D1C641EF9D52846BDE8BF
:10095000F0814A68002A06D00A68531C0B601070A8
:100960004868401E486070470A68531C0B6010704E
:10097000704700008EB01B4919480860FCF7D8FB8F
:10098000FEF7E2FFFEF796FBFEF7E8FBFEF736FC0C
:10099000FEF712FCFEF78CFCFEF7CAFCFEF7ACFC7F
:1009A000114B4FF4805211491148FBF7F8FE00F04B
:1009B00045F8FEF7F5FC342101A8FBF75DFC0D4C72
:1009C0000DA101A82278FFF721FB082301AA01212C
:1009D000002000F047F80B48FEF710FEF0E700009B
:1009E00000C0000808ED00E0AC0000200004024058
:1009F000240200202E000020636C69636B3A25649A
:100A000000000000410000200FB430B5ADF5017DBD
:100A1000054686AB4FF4007101A8859AFFF70AFBE3
:100A20000446A2B2FF2301A92846FEF75FF90DF59F
:100A3000017D204630BC5DF814FB000010B5042198
:100A40000748FDF709FD00210548FDF705FD0A20CF
:100A5000FCF74CF8BDE810400148FDF715BB00005D
:100A6000040100202DE9F04104460E461746984641
:100A700000250DE0434631462046FEF7BBFC083416
:100A8000E4B2782C02D90024B61CF6B26D1CEDB28B
:100A90007A5D002AEED1BDE8F08100000000000080
:100AA000000001020304060708090000000001021B
:100AB00003040000000000000000002F0000000000
:100AC0000700070000147F147F1400242A7F2A12D5
:100AD00000626408132300364955225000000503C4
:100AE000000000001C224100000041221C000014F4
:100AF000083E08140008083E0808000000A0600036
:100B000000080808080800006060000000201008C5
:100B10000402003E5149453E0000427F4000004231
:100B200061514946002141454B31001814127F1094
:100B3000002745454539003C4A49493000017109C3
:100B4000050300364949493600064949291E000077
:100B5000363600000000563600000008142241001E
:100B6000001414141414000041221408000201514E
:100B7000090600324959513E007C1211127C007F57
:100B800049494936003E41414122007F4141221CF2
:100B9000007F49494941007F09090901003E414957
:100BA000497A007F0808087F0000417F410000204B
:100BB00040413F01007F08142241007F40404040F7
:100BC000007F020C027F007F0408107F003E41413D
:100BD000413E007F09090906003E4151215E007F28
:100BE000091929460046494949310001017F01019F
:100BF000003F4040403F001F2040201F003F403842
:100C0000403F006314081463000708700807006180
:100C10005149454300007F41410000552A552A555E
:100C2000000041417F0000040201020400404040F6
:100C30004040000001020400002054545478007F1A
:100C40004844443800384444442000384444487FF1
:100C500000385454541800087E0901020018A4A456
:100C6000A47C007F080404780000447D400000401C
:100C700080847D00007F102844000000417F4000F8
:100C8000007C04180478007C08040478003844448C
:100C9000443800FC242424180018242418FC007C68
:100CA0000804040800485454542000043F444020E1
:100CB000003C4040207C001C2040201C003C403078
:100CC000403C004428102844001CA0A0A07C004404
:100CD00064544C4414141414141400000000000054
:100CE00000000000000000000000000000F800000C
:100CF0000000000000333000000000100C06100C53
:100D00000600000000000000000040C07840C078ED
:100D10004000043F04043F040400007088FC0830D5
:100D20000000001820FF211E0000F008F000E0186D
:100D3000000000211C031E211E0000F00888700026
:100D400000001E2123241927211010160E00000078
:100D500000000000000000000000000000E0180497
:100D60000200000000071820400000020418E00004
:100D700000000040201807000000404080F0804044
:100D800040000202010F01020200000000F000001A
:100D900000000101011F010101000000000000002E
:100DA000000080B0700000000000000000000000A3
:100DB000000000010101010101010000000000002C
:100DC00000000030300000000000000000008060E3
:100DD0001804006018060100000000E01008081068
:100DE000E000000F102020100F00001010F800008D
:100DF00000000020203F2020000000700808088824
:100E000070000030282422213000003008888848F3
:100E100030000018202020110E000000C02010F823
:100E2000000000070424243F240000F808888808F4
:100E300008000019212020110E0000E010888818F9
:100E40000000000F112020110E0000380808C838DB
:100E500008000000003F00000000007088080888BB
:100E60007000001C222121221C0000E01008081044
:100E7000E0000000312222110F00000000C0C0007D
:100E80000000000000303000000000000080000082
:100E90000000000080600000000000008040201082
:100EA000080000010204081020004040404040407B
:100EB00040000404040404040400000810204080DE
:100EC0000000002010080402010000704808080813
:100ED000F0000000003036010000C030C828E810E3
:100EE000E0000718272423140B000000C038E0009E
:100EF0000000203C23020227382008F888888870E8
:100F00000000203F202020110E00C03008080808F3
:100F10003800071820202010080008F808080810DA
:100F2000E000203F202020100F0008F88888E80803
:100F30001000203F20202320180008F88888E808A7
:100F40001000203F200003000000C03008080838CF
:100F5000000007182020221E020008F808000008E0
:100F6000F808203F210101213F20000808F8080867
:100F700000000020203F2020000000000808F808A2
:100F80000800C08080807F00000008F888C0281812
:100F90000800203F20012638200008F80800000043
:100FA0000000203F20202020300008F8F800F8F84A
:100FB0000800203F003F003F200008F830C0000834
:100FC000F808203F200007183F00E010080808102C
:100FD000E0000F10202020100F0008F80808080873
:100FE000F000203F210101010000E0100808081076
:100FF000E0000F18242438504F0008F888888888AB
:101000007000203F2000030C302000708808080882
:1010100038000038202121221C00180808F8080890
:1010200018000000203F2000000008F80800000819
:10103000F808001F202020201F000878880000C822
:101040003808000007380E010000F80800F8000812
:10105000F800033C0700073C03000818688080681C
:10106000180820302C03032C30200838C800C8385A
:1010700008000000203F2000000010080808C838C1
:1010800008002038262120201800000000FE02025F
:1010900002000000007F40404000000C30C0000013
:1010A0000000000000010638C00000020202FE003D
:1010B0000000004040407F000000000004020202E7
:1010C000040000000000000000000000000000001C
:1010D0000000808080808080808000020204000008
:1010E0000000000000000000000000008080808000
:1010F00000000019242222223F2008F800808000EE
:101100000000003F112020110E00000000808080B0
:101110000000000E112020201100000000808088B7
:10112000F800000E112020103F20000080808080F9
:101130000000001F222222221300008080F08888F5
:1011400088180020203F2020000000008080808040
:101150008000006B94949493600000F8008080807D
:101160008000003F010000003F00008098980000D0
:1011700000000020203F2020000000000080989800
:10118000000000C08080807F000008F800008080A0
:101190008000203F24022D302000000808F80000C5
:1011A00000000020203F2020000080808080808080
:1011B0008000203F20003F20003F80800080808012
:1011C0000000203F210000203F2000008080808020
:1011D0000000001F202020201F0080800080800051
:1011E000000080FFA12020110E0000000080808000
:1011F0008000000E112020A0FF8080808000808071
:10120000800020203F21200001000000808080809D
:1012100080000033242424241900008080E0808092
:1012200000000000001F20200000808000000080DF
:101230008000001F202020103F2080808000008040
:10124000808000010E300806010080800080008050
:1012500080800F300C030C300F00008080008080F5
:1012600080000020312E0E31200080808000008020
:10127000808080818E7018060100008080808080D0
:1012800080000021302C2221300000000000807CF2
:10129000020200000000003F404000000000FF008C
:1012A000000000000000FF0000000002027C80003F
:1012B00000000040403F0000000000060101020263
:1012C00004040000000000000000002046CC0804D8
:1012D000047CC4040484F40C00000000000000003E
:1012E000000000000000000000000040300C4440FE
:1012F0006020110E0E13206040000000000000006E
:10130000000000000000000000000000380848480D
:10131000484E4CC8C848083838000000000000009B
:1013200000000000000000000000000404040404A9
:10133000C4447F050404040404000000000000000D
:101340000000000000000000000000000000081085
:101350003060E0E0000040404040404040404020DD
:101360002020A0F07020000000000000000000001D
:10137000000000000000000000000000000000006D
:10138000000000000000000000000000000000005D
:10139000000000000000000000000000000000004D
:1013A000000000000000000000000000000000003D
:1013B000000000000000000000000000000000002D
:1013C00000000000000000000000000808181030B5
:1013D000700000C0700C020002061C70C08000800B
:1013E000E0780F0300000000000000000000000093
:1013F00000000000000000000000000000000000ED
:1014000000000000000000000000000000000000DC
:1014100000000000000000000000000000000000CC
:1014200000000000000000000000000000000000BC
:1014300000000000000000000000000000000000AC
:10144000000000000000000000000000000000801C
:10145000E0780E01000000000080C060301B0E1B11
:1014600071E08000000000000000000000000000AB
:10147000000000000000000000000000000000006C
:10148000000000000000000000000000000000005C
:10149000000000000000000000000000000000004C
:1014A000000000000000000000000000000000003C
:1014B000000000000000000000000000000000002C
:1014C00000000000000000000000000102060E0FF6
:1014D00021101008080406030100000000000000AD
:1014E000000003070E0C0C0C0808000000000000B0
:1014F00000000000000000000000000000000000EC
:1015000000000000000000000000000000000000DB
:1015100000000000000000000000000000000000CB
:1015200000000000000000000000000000000000BB
:1015300000000000000000000000000000000000AB
:101540000000000000000000000000006C15010811
:10155000000000205800000080000108C4150108A8
:1015600058000020700600009000010801000000F3
:1015700010000000000000000024F400AED580A898
:101580001FD300408D14A1C8DA008180D91FDB4031
:10159000A4AF00000000FFFF0000000000000000FA
:1015A00000000000000000000000000000005631B4
:1015B0002E300000000000000000000000000000CD
:0415C0000000000027
:040000050800C1AD81
:00000001FF
